:020000040000FA
:060000000216C4020A19F9
:03001300020A3BA3
:03002B0002145567
:03003300020C6359
:03003B00020A9026
:0300530002094E51
:03005B000211C7C8
:030063000211E89F
:03006B00020C097B
:03007B00020C3A3A
:100083000209AD010020FD0002012E050000000160
:10009300D21CDE1C0000E41CF01C00000000F61C57
:1000A3001A1D201D261D0000000000000000010194
:1000B3000204081020408001FFFF090D0101040123
:1000C300FEFF0000000000000006FFFFFFFFFFFF30
:1000D300FF0101010400C619000000E8030000FF4E
:1000E300FF921AE803000064006400B801A0BB0D8E
:1000F30000A0BB0D00020200F8FF0705021E040169
:10010300051E02051E020A0A010108080103102741
:1001130002803E0102FEFFE8030A050001FFFF0122
:100123000A1401E0C503423F1A51123FF304B53FDD
:100133000000803E010105030101FF0F10FEFF9D3A
:100143003A00000000353A00000000FF000000FF05
:1001530000C082C083E9FA5407F8748C28F582E45E
:10016300341DF583E0F87900EAC4540F54036008A2
:1001730014600914600D8012E5808002E5905870C8
:10018300078007E5A0586002790102025BC082C0C4
:10019300831202ED600814601214601C802BEA6065
:1001A30005EB42808023E85280801EEA6005EB4223
:1001B300908016E852908011EBC39420500BEA60B4
:1001C30005EB42A08003E852A002025BC082C08319
:1001D3001202ED600814602C146050807BE852F327
:1001E30074016A601274026A601574046A7003EB26
:1001F300428FEB42FD806153F7DFE8528F80F34378
:10020300F72080F6E852F474016A601274026A609F
:100213001574046A7003EB42F6EB42FE803A53F71F
:10022300BFE852F680F343F74080F6EBC3942050C7
:1002330027E852F574016A601274026A6015740447
:100243006A7003EB42F7EB42FF800D53F77FE852EE
:10025300F780F343F78080F6D083D08222C082C038
:10026300831202ED600814602B14604E806CE85218
:10027300F352FD74016A600F74026A600F74046ABA
:100283007058EB428F805353F7DF800343F720E826
:10029300528F8046E852F452FE74016A600F740272
:1002A3006A600F74046A7032EB42F6802D53F7BF15
:1002B300800343F740E852F68020EBC39420501AA2
:1002C300E844E0F852F552FF74016A601074026A60
:1002D300601374046A7003EB42F702025B53F77F07
:1002E300E852F780F543F78080F6E95407FC748CF5
:1002F3002CF582E4341DF583E0FBF4F8E9C4540FD4
:10030300540322C082C0831202ED600814601214E9
:10031300601C802DEA6005EB42FD8025E852FD80DC
:1003230020EA6005EB42FE8018E852FE8013EBC31F
:100333009420500DEA6005EB42FF800574E04852BB
:10034300FF02025BC082C0831202ED6008146015D5
:100353001460228034EA6005EB42808003E8528017
:10036300EB42FD8024EA6005EB42908003E8529063
:10037300EB42FE8014EBC39420500EEA6005EB427F
:10038300A08003E852A0EB42FF02025BE9C4540FD2
:1003930054036007146013146020227801E8F4FB0F
:1003A300EA602014602114601522740F59C3940469
:1003B3005004780280E7780480E3780880DFE58CD6
:1003C300586004EB528C22E8428C221216D4601D32
:1003D3001216E37005191919801A121565701F1288
:1003E300153DC37003E66733191919400718181828
:1003F3002208080874FFF618F618F618F6221215E4
:100403003D6017121789702192F0121792701950DC
:100413001720F014080808090909E7F61819E7F680
:100423001819E7F61819E7F62212179260E6E86939
:10043300701F0808E62480F608E436F618547FB4E3
:100443007F0CE654806007F6E418F618F6221818B5
:1004530022E9C6CC08C6CD08C6CE08C6CFC0E0E8A0
:10046300C0E0EAC0E0EBC0E009E9F809E7FA09E710
:10047300FBE6F918E6F8C3EC98ED99EE9AEBC2E7C0
:10048300F5F0EFC2E795F0500E600CEBCFFBEACE30
:10049300FAE9CDF9E8CCF8EAA2E7D2E7FAEB33FBC5
:1004A30013F5F0EEA2E7D2E7FEEF33FFC5F013A298
:1004B300E730E601B313C5F0C3C0E0C0F07F00C36B
:1004C3009BFB605E9418600F401D14601AD0E023FC
:1004D300F9D0E0F80205AF8AF0E9486003D2F0E40E
:1004E300AFF0FAF9F8803BEB30E40D89F0EA6003F2
:1004F300D2F0E4AFF0F9CAF8EB30E30D88F0EF6027
:1005030002D2F0AFF0E4CAC9F8EB54076014FBC39E
:10051300EA13FAE913F9E813F8EF135002D2E0FFF4
:10052300DBEDD0E0C0E030E739C3E49FFFF5F0EC4A
:1005330098FC42F0ED99FD42F0EE9AFE42F0D0E0D5
:10054300F9D0E0F8E5F0607AE923F9EE20E742D844
:10055300028067C3EF33FFEC33FCED33FDEE33FE74
:1005630080EAEC28FCED39FDEE3AFED0E023F9D029
:10057300E0F84002801BC3EE13FEED13FDEC13FC09
:10058300EF135002D2E0FF08B800067F7F74FF80AC
:100593002EEF3350178CF020F00260100CBC000CCF
:1005A3000DBD00080EBE000408E860DFE933E81360
:1005B300FFEE2313FE4F4D4C8008E95480FFE4FE09
:1005C300FDFCEE33EF33F47004FCFD7E80D0E0FBE2
:1005D300D0E0FAD0E0F8D0E0CFC618CEC618CDC62A
:1005E30018CCC6F9221216D4700418181822121641
:1005F300E3700D74FFF61819F61819F61819F62298
:10060300E7548066F6121792700F12178970F01470
:10061300F608F608F608F680D1121789700CF6086A
:10062300F608768008E6447F80EC121540700C12C1
:10063300156860BFE65480F6E480BB121568700548
:1006430019191980A5E869700C763F18768018F699
:1006530018F6E8F922E6CDC0E018ECC0E0E633CDA9
:1006630033CDD313F6E719FCE7191933CC33C3940D
:100673007F400ECD9D502408E65480F6E418F680A2
:100683000FF4043D14501408E6447FF6187680E412
:1006930018F618F6D0E0FCD0E0FD22CCD313CCFD45
:1006A30018E4C6CBC0E018E4C6CAC0E00808ED08E9
:1006B300C633E613F618E433C675F003C3CA97CA04
:1006C30009CB97CB199C40047D08802EBD00030203
:1006D300079116B6FF050606081618C3CA33CACB18
:1006E30033CB33CA27CA09CB37CB193CC37D088028
:1006F3003E187D0820E75CC633C6CA33CACB33CB6A
:1007030033DDF1D5F0EB30E77BCA97CA09CB974AC3
:10071300CB199C406F4B7025E620E0218066187D45
:1007230008C3CA97CA09CB97CB199CD3C633C6CA89
:1007330033CACB33CB3350C9DDE7D5F0E1D3E4C6BD
:1007430036C608C636C608C636C608C636C618181C
:10075300188031C3CA97CA09CB97CB199CB340976A
:10076300C633C6CA33CACB33CB33DD34D5F02EC63A
:10077300A2E0C640C8CA27CA09CB37194A70BECB04
:100783003CB480B90808E63308E633601F1818182C
:10079300D0E0FAD0E0FBD0E0FCD0E0FD22187D08E9
:1007A300CA27CA09CB37CB193CD3808013F618E488
:1007B300B67F11F618B6FF0EF618C60470D20808F5
:1007C300768080CAF618F618F680C5001216D46033
:1007D3004F1216E36012E7548066F6121565701126
:1007E300121789703B090909F4F618F618F618F67A
:1007F3002212153D701512179208080860EAE644A4
:100803007FF618768018E4F618F62212179260160F
:100813001217897012E4F608F608F608E65480F613
:1008230009090918181822EAC0E0EBC0E0ECC0E09F
:10083300EDC0E0E687F0A4FBACF008E687F0A42C5B
:10084300FCE435F0FA1809E687F0A42C4B60027437
:1008530001CA35F0FCE433FB09E687F0D2F7A42C98
:10086300CB35F0FC1908E687F0A42BCC35F0FBE47C
:1008730033FD0819E687F0D2E7A42C4ACB35F0CD37
:100883003400FC09E687F0D2E7A42DCC35F0FDE473
:1008930033FA0918E687F0D2F7A42CCD35F0CA3421
:1008A30000FC08E687F0D2E7D2F7A42ACC35F07A29
:1008B3007E20E70B0ACB33CBCD33CDCC33CC33CB3C
:1008C3003350147004ED30E00ED2F1E4CD3DCDCCC5
:1008D3003CCC3B5005DA05C2F1EB547FC63308E646
:1008E3003392F0FBE73309E733C39A502D2B70198A
:1008F3000C0D4C4D70151806E608C333700D20F12E
:100903000AA2F013F6E418800B4024E4F630F00258
:10091300768018F618F618F68024D33B145010741A
:10092300FFA2F013F6187680E418F618F6800FA2EB
:10093300F013F618E63303F618ECF618EDF6D0E0EC
:10094300FDD0E0FCD0E0FBD0E0FA22C0E074F1126D
:100953000E5FA2AFE433F509D2AF85A708AFA1EFCD
:100963005508FE74105E60061219AE75A1EF740887
:100973005E60081219B475A1F78024EFA2E092F02B
:10098300E508A2E082F05017906198E0F890049C8B
:10099300E0C398A2D265D0335002E8F075A1FEE51A
:1009A30009A2E092AF7F02020EBEC0E074F2120E03
:1009B3005FA2AFE433FED2AF9061A4E0F8759B0071
:1009C300E59158540860087591F71219FC8023E5E6
:1009D3009158541060087591EF121A028014E59132
:1009E300A2E092F0E8A2E082F05007E0C2E0F01249
:1009F3001B5E9061A3E0F8E5E9585404600E121BF6
:100A03003475E9FB906193E0A2E640F2EEA2E09236
:100A1300AF7F01020EBEC0E074F2120E5FA2AFE41C
:100A230033FED2AF9061A5E0F8E5BF5854046006E9
:100A330075BFFB121B7680D4C0E0C0D0E8C0E0E9EC
:100A4300C0E0C082C083A8C1E8C0E0900409E0F818
:100A5300748828F582E43403F583D0E0F090040829
:100A6300E0F8A3E0687006E59590040BF0900409A4
:100A7300E004F0C394804002E4F0A374C6F0D08392
:100A8300D082D0E0F9D0E0F8D0D0D0E032C0E0C0DE
:100A9300D0E8C0E0E9C0E0C082C08390048CE0F8F5
:100AA300A3E0687008539AFBA374018022C2E99003
:100AB300048CE0F8740128F0740C28F582E4340403
:100AC300F583E0F5C190048CE0C394804002E4F028
:100AD30080AC120B2030F039120B658034120B20DE
:100AE30020F01430E72B74FFFCFBFA747F8022E4C0
:100AF300FCFBFA7480801AB48008BC00F2BB00EFE0
:100B0300800F50EBF9E4C39AFAE49BFBE49CFCE40A
:100B130099C6CC18C6CB18C6CA18C6F922E4C9C6EA
:100B230008CAC608CBC6D3330308CCC63392F0C376
:100B3300947F402E94184019C9B90704CACBCC221C
:100B43005025C309CA33CACB33CBCC33CC33D9F406
:100B530022F4600DC9CCC313CB13CBCA13CAD9F685
:100B6300CC22E4FCFBFA2214FCFBFA22C3E498F83F
:100B7300E499F9120BB08026C3E49AFAE49BFBE9EB
:100B830020E7E9120BB0E498F8E499F922C3E4985A
:100B9300F8E499F9120BB0E498F8E499F9C3E49AEC
:100BA300FAE49BFB22EB20E7CFE920E7E0B9001052
:100BB300BB0008E88AF084F8AAF022E4FBC8FA2212
:100BC300EB70227B10C833C8C933C9335007C39AAB
:100BD300C3DBF280069A50012ADBEAC833F4C8C9A2
:100BE30033F4C9FA2275F008E4C833C8C933C933EA
:100BF300C99AC99B5004C92AC93BD5F0ECFBC83339
:100C0300F4C8E4C9FA22C0E074F2120E5FA2AFE4A2
:100C130033FED2AF90062FE05589600FE589FA794C
:100C230000121E2290062FE0F45289C2C5EEA2E004
:100C330092AF7F01020EBEC0E074F2120E5FA2AF4C
:100C4300E433FED2AF900630E0558A600FE58AFAAE
:100C53007901121E22900630E0F4528AC2EB80CD55
:100C6300C0E074F2120E5FA2AFE433FED2AF90067F
:100C730031E0558B600FE58BFA7902121E22900644
:100C830031E0F4528BC2E880A4080808EAC0E0EB24
:100C9300C0E086F0E7A4FA180986F0E7A42AFA1858
:100CA3000986F0E7A42AFA180986F0E7A42AFA19B4
:100CB30086F0E7A4FBE5F02AFA190886F0E7A42BEF
:100CC300FBE5F03AFA190886F0E7A42BFBE5F03AC6
:100CD300FA18180986F0E7A4C5F02BFBE43AFA19D1
:100CE30008E7C5F0C6A426F6E5F03BFBE43AFA189C
:100CF30086F0E7A4F6E5F00826F6E43B08F6E43AC6
:100D030008F6D0E0FBD0E0FA22080808E630E71145
:100D13001215A1120D24080808C64480C618181815
:100D230022181818E9799EC608CAC608CBC608CC8B
:100D3300C6C370207996CACBCC7019798ECBCC7090
:100D4300137986CC700EF9802ACA33CACB33CBCC45
:100D530033CC331930E7F2CCCBCA3350147004EAE6
:100D630030E00DE4CA3ACACB3BCBCC3CCC500209B1
:100D7300C3E913C6CC182313C6CB18C6CA18C6F9C1
:100D830022E4CFC0E0E4CEC0E0E4CDC0E0E4CCC0D8
:100D9300E075F020E626F608E633F608E633F608B3
:100DA300E633F6181818EC33FCED33FDEE33FEEFA3
:100DB30033FFC3EC9709ED9709EE9709EF971919DC
:100DC30019400FFFEC97FC09ED97FD09EE97FE190B
:100DD3001906D5F0BFECF709EDF709EEF709EFF7C0
:100DE300191919D0E0FCD0E0FDD0E0FED0E0FF22DD
:100DF3002518C582C0E0E51934FFC583C0E0E518B6
:100E0300C3958224F810AF0885831985821880085A
:100E1300858319858218D2AFCEF0A3E520F0A3789D
:100E230008E608F0A3DEFAEFF0A3E58124FAF8E67A
:100E330008F0A3E608F0A3E608F0A30808E608F024
:100E4300A3E608F0A315811581D0E0FED0E0F815E4
:100E53008115811581E8C0E0EEC0E022C0D02518DD
:100E6300C582C0E0E51934FFC583C0E0E518C3952A
:100E73008224F310AF08858319858218800885833F
:100E830019858218D2AFC8F0A3E9F0A3EAF0A3EB67
:100E9300F0A37908E709F0A3D8FAECF0A3EDF0A3E7
:100EA300EEF0A3EFF0A3D0E0F0A3D0E0F0A3D0E006
:100EB300F0A3E520F0A3E5F0F0A3228519838518BC
:100EC30082E0C0E0A3E0F9A3E0FAA3E0FBA3780883
:100ED300E0F608A3DFFAE0FCA3E0FDA3E0FEA3E055
:100EE300FFA3E0C0E0A3E0C0E0A3E0F5D0A3E0F5FA
:100EF30020A3E0A3F5F010AF08858319858218803D
:100F030008858319858218D2AFD082D083D0E0F8C8
:100F1300D0E0321215A4181818120D841216731982
:100F2300191922121673191919080808E61818183E
:100F330020E7E0120D841215A418181822090909D4
:100F4300E719191920E7DC080808E618181820E73C
:100F530003020D841215A4181818120D841215A477
:100F630018181812167319191922121774B90003D5
:100F7300020FACE49003317830791B8002F0A3D8E0
:100F8300FCD9FA7A607B1D90008678CF79018015B1
:100F9300E493A3AD82AE838A828B83F0A3AA82AB50
:100FA300838D828E83D8E9D9E77582F77583C974F7
:100FB300071213CC7582A275833774001213CCE425
:100FC3007375F0108E1A8F1B85821F85831E8518FB
:100FD30082851983E0CEA3E0CF851F82851E83EB34
:100FE300C9EAC8EDCBECCAC3E833C8E933C9EA336D
:100FF300CAEB33CBC3EA9EF51DEB9FF51CB350043C
:10100300AB1CAA1DEC33CCED33CDD5F0DAAE1AAF61
:101013001B221216D4601C1216E36017121792706B
:10102300071217897001D322C0D01217897006D016
:10103300D0B322C32233D0D0501430E0F6C3E796A6
:101043000809E7960809E7960809E796B32220E01E
:10105300D5E6970809E6970809E6970809E697B3DE
:1010630022D083D082ECC0E0EDC0E0E493A3FCE4A3
:1010730093A3FDED4C600D121188EC24FFFCED34BD
:10108300FFFD80EFE493A3FCE493A3FDED4C600D1F
:1010930012128FEC24FFFCED34FFFD80EFD0E0FD56
:1010A300D0E0FCE493A3C0E0E493C0E0221216D4A2
:1010B300601B1216E36016121792700712178960ED
:1010C3000CB322C0D01217897005D0D022C32233AB
:1010D300D0D0501330E0EBC3E7960809E796080930
:1010E300E7960809E7962220E0E4E6970809E697E1
:1010F3000809E6970809E69722D083D082E9C0E081
:10110300E493A3C386F0C5F095F0F908E493A386AE
:10111300F0C5F095F0700BE493A3C3994005E9047F
:101123008002A3E475F002A42582F582E5F03583FD
:10113300F583D0E0F9E493A3C0E0E493C0E0228513
:101143001983851882E0A3FEE0A3F5207808E0A3C5
:10115300F608DFFAE0A3FFE0A3C0E0E0A3C0E0E00D
:10116300A3C0E0E0A3C0E0E0A3C0E010AF08858225
:10117300188583198008858218858319D2AFD08397
:10118300D0820213D2C0E0C3E4939608740193960D
:1011930018400FE493667008087401936618700092
:1011A3007019A3A3C3E49396087401939618A3A399
:1011B300400DD0E0D0E0D0E00210A0A3A3A3A3A3EE
:1011C300A3D0E022C0E074F2120E5FC2D9901DA931
:1011D300E0C39400A2D265D0334005E0F912211692
:1011E3007F01020EBEC0E074F2120E5FC2DC901DDE
:1011F300ABE0F9C39400A2D265D0334003122116A9
:1012030080DE7404800474028000CCC0E0EDC0E092
:10121300E518C39CCCAD1950011D10AF068C188D79
:101223001980068C188D19D2AF12134ED0E0FDD061
:10123300E0FC2274028000CCC0E0EDC0E0E518C3FE
:101243009CCCAD1950011D10AF068C188D1980066A
:101253008C188D19D2AF12130AD0E0FDD0E0FC2216
:101263001216D460251216E360201217927003023F
:101273001789080808E76670101819E766700A18D6
:1012830019E76670041819E76622F422C0E0C0F07B
:1012930088F0E4936670080874019366187000A8D8
:1012A300F0A3A3700BD0F0D0E0D0E0D0E00210A008
:1012B300A3A3D0F0D0E022D083D082CCC0E0E493CB
:1012C300A3600612136F1470FAE493A3600612145A
:1012D300D21470FAD0E0FCE493A3C0E0E493C0E03E
:1012E30022C008C3E096F50808A3E096420808A3C5
:1012F300E096420808A3E0964208A2D265D033E5FF
:10130300087001D3D00822CAC0E0E493A3C582CCFD
:10131300C582C583CDC583F0A3C582CCC582C583F1
:10132300CDC583DAE5D0E0CA22A2E792D65002F413
:101333000430F70663F0FF05F0B3400384800384B1
:10134300F40430D60563F0FF05F022CAC0E0E0A341
:10135300C582CCC582C583CDC583F0A3C582CCC568
:1013630082C583CDC583DAE6D0E0CA22C0E0E49328
:10137300A3D39C5010E493A3C39C400AD0E0D0E0D5
:10138300D0E00212D7A3A3A3D0E022700908080873
:10139300226016181818C6C333C608C633C608C653
:1013A30033C608C633C6D5E0EA22C008C3E096F5C3
:1013B3000808A3E096420808A3E096420808A3E0C1
:1013C3009645087001D3D00822C09FF59FE473D0DF
:1013D3009F22D083D082C09FE493C0E0740193C066
:1013E300E0740293F59F227404800A7403800674E8
:1013F3000280027401C0E0F404121420D0E012173A
:101403001F2200C0D0251810AF08F518500C05197D
:101413008008F51850020519D2AFD0D0222518F54F
:101423008210AF08F518400C15198008F518400212
:101433001519D2AF85198322BB0102E722C082C0EE
:101443008389828A83BB0003E08002E493D083D044
:101453008222C0E0C0D0E8C0E0A8A8D2AFC2C7E8EB
:10146300A2E792AFD0E0F8D0D0D0E03260170808FE
:1014730008C6A2E713C618C613C618C613C618C6ED
:1014830013C6D5E0E9226016080808C6C313C618B8
:10149300C613C618C613C618C613C6D5E0EA22C3B8
:1014A300E0C696F608A3E0C696F608A3E0C696F64D
:1014B30008A3E0C696F6222518F8E43519F9222583
:1014C30018FAE43519FB222518FCE43519FD22C06E
:1014D300E0E493A36C7009D0E0D0E0D0E00212D72F
:1014E300A3A3D0E022251810AF08F518400C151956
:1014F3008008F51840021519D2AF22E7667010086C
:1015030009E766700A0809E76670040809E76622B6
:10151300C3E09608A3E09608A3E09608A3E096A28A
:10152300D265D03322E066701008A3E066700A0823
:10153300A3E066700408A3E06622191919E70947B6
:10154300097009E727097005E733F4220922C3E08C
:1015530096F008A3E096F008A3E096F008A3E096BF
:10156300F022181818E60846087009E626087005E0
:10157300E633F4220822C3E4939608740193960891
:1015830074029396087403939622C3E697F60809A8
:10159300E697F60809E697F60809E697F62218187B
:1015A30018E4C396F608E496F608E496F608E4967B
:1015B300F622E056F008A3E056F008A3E056F00840
:1015C300A3E056F022E667F60809E667F60809E69F
:1015D30067F60809E667F622E493F608740193F6C2
:1015E30008740293F608740393F622E657F6080983
:1015F300E657F60809E657F60809E657F622E627FE
:10160300F60809E637F60809E637F60809E637F675
:1016130022E026F608A3E036F608A3E036F608A390
:10162300E036F622E026F008A3E036F008A3E03621
:10163300F008A3E036F022E647F60809E647F60885
:1016430009E647F60809E647F622700422600D18FA
:10165300C6C333C608C633C6D5E0F41822E056F62F
:1016630008A3E056F608A3E056F608A3E056F622D0
:10167300E4C397F709E497F709E497F709E497F7C1
:1016830022600D08C6A2E713C618C613C6D5E0F339
:1016930022C6F4C608C6F4C608C6F4C608C6F4C60D
:1016A30022C3E09608A3E09608A3E09608A3E09679
:1016B30022C3E7960809E7960809E7960809E7961B
:1016C3002275D00075813F75183175190300020F1B
:1016D3006DE6084608C3134608336002E633F42276
:1016E300E7094709C3134709336002E733F422606C
:1016F3000C08C6C313C618C613C6D5E0F422E6F019
:1017030008A3E6F008A3E6F008A3E6F022E0F60853
:10171300A3E0F608A3E0F608A3E0F622CAC0E0E6D9
:10172300F0A308DAFAD0E0FA22E0FCA3E0FDA3E09C
:10173300FEA3E0FF22EAF0A3EBF0A3ECF0A3EDF0AD
:1017430022E0FAA3E0FBA3E0FCA3E0FD22E8F0A380
:10175300E9F0A3EAF0A3EBF022ECF0A3EDF0A3EEA3
:10176300F0A3EFF022E0F8A3E0F9A3E0FAA3E0FB93
:1017730022E5C754F84401F5C77901222518F582FB
:10178300E43519F58322E72719471947194722E654
:101793002618461846184622C2AF75D69F02000087
:1017A300221213D57ADF051213D55CE2051213D585
:1017B300B0E3051213D566E4051213D565E50512EA
:1017C30013D598E6051213D5A7BE071213D528BF64
:1017D300071213D563C0071213D535D9071213D5D2
:1017E30046D9071213D5E4D9071213D5EFD9071237
:1017F30013D5FC7F001213D5B6DF071213D5FFDB19
:10180300071213D50FDC071213D524DC071213D5E7
:101813008ADC071213D538D6071213D5BBD60712A5
:1018230013D521D7071213D5F9C7071213D534C817
:10183300071213D58FC8071213D5E7C8071213D59C
:101843006DC9071213D5A9C9071213D5C9DF07122A
:1018530013D5D9DF071213D519A8071213D56FA80B
:10186300071213D5BEA8071213D5EBA8071213D579
:1018730041A9071213D514DF071213D537C1071275
:1018830013D581C1071213D517C2071213D59DC2F1
:10189300071213D5CEC2071213D5E6C2071213D50A
:1018A3005AC3071213D570C3071213D583C3071284
:1018B30013D58DC3071213D591D1051213D542D673
:1018C300051213D557D7051213D583D7051213D590
:1018D30012D8051213D5D9DA051213D500800612D2
:1018E30013D56380061213D51381061213D5DE8137
:1018F300061213D53383061213D51384061213D598
:101903001085061213D5E886061213D50F87061223
:1019130013D59B87061213D5F588061213D56B8949
:10192300061213D5A989061213D5BB89061213D53E
:1019330000B0061213D5CEB1061213D5F9B20612B2
:1019430013D5BCB4061213D58DF9061213D5B9F904
:10195300061213D52AFC061213D56AFC061213D5F8
:10196300AAFC061213D5BEFC061213D5D7FC061229
:1019730013D5C8FD061213D56DFE061213D581FECD
:10198300061213D503CF071213D527CF071213D58A
:1019930040CF071213D572CF071213D5A2CF071268
:1019A30013D5CFCF071213D531D0071213D540D09B
:1019B300071213D54AD0071213D557D0071213D5E0
:1019C30011BC071213D531BC071213D570BC071213
:1019D30013D58BBC071213D5AABC071213D510BDA0
:1019E300071213D519BD071213D576BD071213D5E8
:1019F3009ABD071213D55BBE071213D568BE071233
:101A030013D579BE071213D594DC071213D5ACDCBA
:101A1300071213D5D8DC071213D5EC8E071213D592
:101A23004090071213D54E90071213D561900712F9
:101A330013D57690071213D58B90071213D59E906A
:101A4300071213D51291071213D57791071213D5E5
:101A53001992071213D5DD92071213D5ED920712CF
:101A630013D5FC92071213D566DB071213D58ADB55
:101A7300071213D5B2DB071213D5DADB071213D51E
:101A8300977F001213D5D6C5071213D5FDC50712CC
:101A930013D51BC6071213D58EC6071213D5FCB573
:101AA300071213D515B6071213D521B6071213D58E
:101AB30035B6071213D553B6071213D55DB6071201
:101AC30013D567B6071213D57AB6071213D504B721
:101AD300071213D579B7071213D5ADB7071213D56C
:101AE300FBB7071213D548B8071213D563B807120B
:101AF30013D56DB8071213D593B8071213D5F8B8D9
:101B0300071213D507DA071213D529DA071213D5EB
:101B1300E4FF011213D5DD93061213D507940612C1
:101B230013D52494061213D53794061213D54D9466
:101B3300061213D5AB94061213D5E394061213D5EC
:101B4300DB98061213D5209A061213D5539A061260
:101B530013D5B69A061213D5399C061213D5619C78
:101B6300061213D5769C061213D5869C061213D53E
:101B7300CA9C061213D5259D061213D5359D061250
:101B830013D5F8D2071213D512D3071213D53AD3AC
:101B9300071213D553D3071213D577D3071213D5CF
:101BA30095D3071213D5ACD3071213D5DAD3071283
:101BB30013D5F5D3071213D58EDE071213D5FFAB5A
:101BC300071213D50FAC071213D516AD071213D591
:101BD3004AAD071213D56CAD071213D58FAD07129B
:101BE30013D5ADAD071213D5E7AD071213D54CAE20
:101BF300071213D58EAE071213D5CDAE071213D528
:101C0300FEAE071213D535AF071213D59EF7021296
:101C130013D59AF8021213D5B8F8021213D5DFF8C8
:101C2300021213D5A4FA021213D5D2FA021213D553
:101C330087FB021213D54EFC021213D55DFD02126F
:101C430013D58FFE021213D5069C071213D55B9C86
:101C5300071213D5D59C071213D5E89C071213D589
:101C63000F9D071213D5A29D071213D57C9E071251
:101C730013D5659D061213D5909D061213D55B9E51
:101C8300061213D5989E061213D5299F061213D553
:101C9300B9A2061213D5CCA4061213D509BA04129D
:101CA30013D543BA041213D543BC041213D588BE0B
:101CB300041213D575C1041213D5E7C1041213D549
:101CC30084C2041213D59AC2041213D54DC304124D
:101CD30013D59CC3041213D5DBC3041213D5F5C368
:101CE300041213D521C4041213D524C4041213D52A
:101CF3007DC4041213D5D0C4041213D588C50412AD
:101D030013D5C5C6041213D552C9041213D56BCB10
:101D1300041213D59ECB041213D5FECB041213D594
:101D230050CC041213D5D3CC041213D567CD0412AF
:101D330013D57DCF041213D51CD1041213D556D25B
:101D4300041213D5F5D3041213D516D4041213D5E4
:101D53003AD8071213D554D8071213D596D80712B9
:101D630013D5C4D8071213D5DED8071213D5F7D865
:101D7300071213D51BD9071213D515EF061213D566
:101D830069EF061213D539F0061213D566F0061261
:101D930013D593F0061213D5E5F0061213D50FF100
:101DA300061213D533F1061213D55BF1061213D5C0
:101DB3009BF1061213D525F2061213D556F206121D
:101DC30013D57DF2061213D5C3F2061213D5E1F231
:101DD300061213D505F3061213D525F3061213D5F0
:101DE3005BF3061213D5BAF3061213D529F40612C0
:101DF30013D550C5061213D58AC5061213D5C5C609
:101E0300061213D5DDC7061213D5F7CB061213D569
:101E13007EE9061213D5B8E9061213D56CEA061249
:101E230013D531D5071213D5A2D5071213D504D66E
:101E3300071213D52BDE061213D53CDF061213D57A
:101E43004DE0061213D59BE1061213D5F1E10612FC
:101E530013D52FE2061213D53DE2061213D5CEE3B6
:101E6300061213D5D8B2071213D53AB3071213D5F6
:101E730036B5071213D50080071213D54180071218
:101E830013D57780071213D59E81071213D53A8392
:101E9300071213D5DA83071213D5F884071213D563
:101EA3003288071213D5B288071213D595FE06128E
:101EB30013D5D2FE061213D506FF061213D519FF4A
:101EC300061213D58DAF071213D5A0B0071213D581
:101ED30062B1071213D50DB2071213D539B2071227
:101EE30013D5B0B2071213D5A0CD071213D5C0CDA9
:101EF300071213D5D3CE071213D5D6CE071213D597
:101F0300B2D1071213D5E8D1071213D502D20712A3
:101F130013D544D2071213D554D2071213D5EED2D8
:101F2300071213D579B7061213D583B7061213D543
:101F3300BDB7061213D526B8061213D543B8061239
:101F430013D5E5B8061213D5EEB8061213D533B977
:101F5300061213D55CB9061213D569B9061213D547
:101F6300DAB9061213D565BA061213D5B3BA061237
:101F730013D5F1BA061213D556BB061213D579BB86
:101F8300061213D5F0BB061213D547BC061213D5A0
:101F930082BC061213D5B7BC061213D5C9BC0612F0
:101FA30013D5DBBC061213D5FABC061213D503BD39
:101FB300061213D5BEBD061213D50ABE061213D5DB
:101FC30048BE061213D561D0071213D5A1D107124B
:101FD30013D5A0C3071213D5D6C3071213D51EC436
:101FE300071213D577C5071213D519DD071213D5B9
:101FF3007795051213D59B96051213D5D596051221
:1020030013D57F98051213D5A998051213D51E9BD6
:10201300051213D55E9B051213D5F49C051213D537
:10202300919D051213D5E39D051213D5869E0512C6
:1020330013D5BE9E051213D5009F051213D56FA0AD
:10204300051213D5BDA1051213D5EEA3051213D5A1
:102053001CA4051213D543A4051213D54CA40512D1
:1020630013D59CA4051213D52EA5051213D55DA86F
:10207300051213D5E0A8051213D578DF071213D57F
:102083008EDF071213D519A0071213D52FA007123D
:1020930013D5D3A0071213D512A1071213D52FA15D
:1020A300071213D560A1071213D5ADA1071213D5DB
:1020B300E0A1071213D51BA2071213D510A4071210
:1020C30013D55ED8061213D584DA061213D5B6DB00
:1020D300061213D5CEDB061213D5E189071213D5E9
:1020E3001C8B071213D5AE8C071213D574BE0612C0
:1020F30013D578BF061213D594C0061213D5AFC1FA
:10210300061213D585C2061213D5DACB071213D5DF
:1021130050CC071213D52DA9051213D5F2A9051218
:1021230013D5FFA9051213D5A8AA051213D507AB1A
:10213300051213D578AC051213D5F0AC051213D5DF
:10214300B2AE051213D5DEAE051213D5E1B00512FA
:1021530013D509B1051213D56AB1051213D5C5B14B
:10216300051213D516B3051213D569B3051213D58A
:10217300EEB3051213D5D9E3061213D500E4061204
:1021830013D554E6061213D57BE6061213D5D0E613
:10219300061213D502E8061213D57EE8061213D5EC
:1021A3003AD7071213D599D7071213D5D7D70712E2
:1021B30013D518D8071213D5E3B7051213D54CB8A6
:1021C300051213D597B8051213D5D2B8051213D536
:1021D30047BB051213D561BF051213D581C1051283
:1021E30013D58FC2051213D569C3051213D51ECC9F
:1021F300061213D558CC061213D591CD061213D55A
:1022030037CF061213D564CF061213D507D00612A3
:1022130013D56AD0061213D5A1D1061213D5B9DA94
:10222300071213D503DB071213D57CD2061213D57D
:10223300D9D2061213D5B7D3061213D5A8D40612D2
:1022430013D5D4D4061213D5B0D5061213D5CCD5D5
:10225300061213D565D6061213D5EED6061213D57C
:10226300C0FE031213D5CFFE031213D52FFF0312A3
:1022730013D5EDFF021213D583F3031213D5EEF337
:10228300031213D5ECF4031213D502F6031213D57C
:1022930088F6031213D561F7031213D541F803121D
:1022A30013D563F9031213D57CFA031213D505FD75
:1022B300031213D5703E001213D57C3E001213D5C2
:1022C300DE3E001213D5E83E001213D57B3F001209
:1022D30013D5B73F001213D57740001213D58440AE
:1022E300001213D5E740001213D57C41001213D519
:1022F300B241001213D52F42001213D5CF4300125F
:1023030013D5A345001213D58446001213D5CE4727
:10231300001213D5304A001213D5954B001213D572
:102323002A4C001213D55D4D001213D5514E0012E5
:1023330013D58A4F001213D52054001213D50D550F
:10234300001213D5A555001213D5CA55001213D583
:10235300F655001213D58E56001213D5A45600124B
:1023630013D5C656001213D52C57001213D54B574D
:10237300001213D57457001213D59458001213D5B5
:102383006A59001213D5DF5A001213D5005B0012ED
:1023930013D5815B001213D5275C001213D56F5C34
:1023A300001213D5E05C001213D56C5D001213D537
:1023B300D05D001213D5305E001213D5DF5E00121C
:1023C30013D54B5F001213D57E5F001213D5FC5F4C
:1023D300001213D55861001213D5C861001213D52A
:1023E3005A62001213D5BD63001213D54464001260
:1023F30013D5A964001213D5D766001213D56368E9
:10240300001213D57368001213D5A768001213D5F1
:102413001569001213D55069001213D5B269001261
:1024230013D5476A001213D5226C001213D5ED6D34
:10243300001213D5F76E001213D5F472001213D5E0
:10244300C173001213D5D974001213D58376001209
:1024530013D50AF2011213D5C1F2011213D5C8F331
:10246300011213D546F4011213D588F5011213D5C1
:10247300A9F5011213D561F6011213D50CF7011258
:1024830013D5ECFA011213D508FD011213D56FFE13
:10249300011213D54ADE071213D5BDD6031213D585
:1024A30018D7031213D5A2D7031213D513D90312C6
:1024B30013D5EBD9031213D5D4DA031213D5EBDA00
:1024C300031213D53DDB031213D5A1DB031213D57E
:1024D300E2DB031213D5F5DB031213D54BDC031236
:1024E30013D5A4DC031213D5BCDC031213D56CDFA4
:1024F300031213D501E0031213D52BE0031213D5F6
:1025030074E0031213D564E2031213D5CEE203126F
:1025130013D5A2E3031213D5E5E3031213D5FFE3A7
:10252300031213D546E4031213D566E4031213D53D
:1025330010E5031213D50EE6031213D568E6031252
:1025430013D5B9E6031213D5C4E7031213D568EA0A
:10255300031213D595EA031213D5FEEA031213D51A
:1025630023EB031213D59DEB031213D566EC031271
:1025730013D5A3EC031213D505ED031213D5C6ED42
:10258300031213D5C9ED031213D5D3ED031213D5DB
:10259300DDED031213D5F0ED031213D56CEE031228
:1025A30013D595EE031213D5A8EE031213D5D4EE6B
:1025B300031213D5FBEE031213D51FEF031213D52A
:1025C3005AEF031213D5CCEF031213D5F4EF031212
:1025D30013D535F0031213D56AF0031213D58AF01D
:1025E300031213D5C7F0031213D5FEF0031213D54C
:1025F30008F2031213D53BF3031213D551F303125D
:1026030013D5F2DD071213D50ADE071213D528D42A
:10261300071213D59778001213D5E678001213D555
:10262300867A001213D5417C001213D5837C0012E5
:1026330013D56C7D001213D5767E001213D5987EC8
:10264300001213D5E27E001213D5637F001213D557
:102653002ED8021213D551D8021213D544D902121F
:1026630013D58DD9021213D5E5D9021213D541DA48
:10267300021213D58DDA021213D503DB021213D51E
:102683008FDB021213D504DC021213D547DC0212CE
:1026930013D518E0021213D59B8C061213D5A1E2B1
:1026A300021213D525E3021213D556E6021213D5EF
:1026B300CBE6021213D55BE8021213D563E90212CB
:1026C30013D579EA021213D5EFEA021213D5B6EB4A
:1026D300021213D51FEC021213D522EC021213D5EA
:1026E300F6EC021213D532EE021213D5F2EF0212F8
:1026F30013D5EDF1021213D5F8F2021213D594F3A8
:10270300021213D5DFF4021213D5E5F5021213D525
:1027130048F6021213D5E5F6021213D5008005120E
:1027230013D5A080051213D50A81051213D5B181E3
:10273300051213D5A6DE051213D5BC82051213D5D7
:102743006585051213D58B86051213D50F870512E0
:1027530013D5EC88051213D59189051213D5348A44
:10276300051213D5938A051213D54C8B051213D575
:10277300CB8C051213D5888E051213D5099005123B
:1027830013D56391051213D57392051213D51993BB
:10279300051213D53894051213D52FD5041213D56A
:1027A300A7D5041213D5EFD5041213D533D60412CB
:1027B30013D57CD6041213D5C6D6041213D5FBD673
:1027C300041213D579D7041213D5D3D7041213D512
:1027D3002CD9041213D5ABD9041213D5C2DA0412BF
:1027E30013D5E4DA041213D5F0DB041213D501DC9C
:1027F300041213D519DC041213D539DD041213D5D1
:1028030056DD041213D529DE041213D54DDE04124E
:1028130013D564DE041213D585DE041213D5A7DEA7
:10282300041213D599DF041213D5F1DF041213D563
:1028330067E1041213D5C5E1041213D5E4E10412D0
:1028430013D516E3041213D593E3041213D500E44E
:10285300041213D540E4041213D5A2E4041213D5D1
:1028630052E5041213D524E7041213D50FE804121A
:1028730013D509E9041213D50FEA041213D52BEB70
:10288300041213D539EB041213D512EC041213D529
:10289300B2EC041213D5F6EC041213D50BED0412AB
:1028A30013D51CEE041213D5BFEE041213D517EF84
:1028B300041213D5C9FC051213D571FE051213D5E5
:1028C3002EFF051213D583FF051213D51DA407127E
:1028D30013D53BA4071213D57FA4071213D5A5A4C0
:1028E300071213D5CBA4071213D5E3A4071213D5EC
:1028F300FBA4071213D513A5071213D576A5071248
:1029030013D5B8A5071213D5DAA6071213D5E3A674
:10291300071213D5ECA6071213D5F5A6071213D584
:10292300FFA6071213D520A7071213D5AC970712DA
:1029330013D58C9B071213D59A9B071213D59F9B14
:10294300071213D567CA071213D591DD071213D5E2
:102953004CDF071213D568FE041213D598DF071254
:1029630013D50080021213D55780021213D5C380EA
:10297300021213D54F81021213D50582021213D509
:102983004D82021213D56682021213D58982021276
:1029930013D5AB82021213D5E982021213D5388301
:1029A300021213D56383021213D5C183021213D506
:1029B3006884021213D51085021213D58C85021276
:1029C30013D55986021213D5A086021213D5EC86AD
:1029D300021213D57487021213D5AD87021213D5D1
:1029E3000388021213D51F88021213D54E880212D0
:1029F30013D55A8A021213D5888B021213D5B48BBE
:102A0300021213D5E88B021213D5098C021213D5C7
:102A1300188C021213D5238C021213D5D28C0212F6
:102A230013D5428D021213D5CD8D021213D5D58D38
:102A3300021213D5428E021213D57E8E021213D5C3
:102A4300448F021213D51790021213D56C90021201
:102A530013D50B91021213D56591021213D5AA91C6
:102A6300021213D54394021213D58695021213D57D
:102A73007098021213D55499021213D5389A021280
:102A830013D5499A021213D5BB9A021213D5529B3E
:102A9300021213D5B79B021213D5A79C021213D5AA
:102AA300CC9C021213D5EA9C021213D5069D021286
:102AB30013D5799D021213D5889D021213D5109E4A
:102AC300021213D50D9F021213D51A9F021213D5AA
:102AD300239F021213D505A1021213D527A20212B6
:102AE30013D537A2021213D565A3021213D5E4A39B
:102AF300021213D5FFA4021213D53BA5021213D55C
:102B030015A7021213D5D2AA021213D5E6AA0212EE
:102B130013D5F0AA021213D5FAAA021213D504ABE5
:102B2300021213D51DAB021213D527AB021213D514
:102B330094AB021213D59FAB021213D5C7AB02128B
:102B430013D5D2AB021213D537AC021213D542AC54
:102B5300021213D566AC021213D58AAC021213D536
:102B6300FCAC021213D545AD021213D561AD0212AE
:102B730013D5D2AD021213D51EAE021213D567AE12
:102B8300021213D5A5AE021213D526AF021213D526
:102B9300CDAF021213D59CB1021213D501B20212AA
:102BA30013D52FB3021213D555B3021213D59DB407
:102BB300021213D5D7B7021213D5D5B9021213D502
:102BC300A0BB021213D539BC021213D53ABE0212AE
:102BD30013D5EFBE021213D528BF021213D58EBF31
:102BE300021213D598BF021213D5C1C1021213D515
:102BF30000C3021213D557C3021213D502C4021223
:102C030013D5B2C5021213D5FFC6021213D51FC7BF
:102C1300021213D574C7021213D575C8021213D545
:102C23009DC8021213D5FCC8021213D5F4C90212AF
:102C330013D56BCA021213D57ECB021213D5ECCB7C
:102C4300021213D5EBCC021213D545CF021213D5C2
:102C53006ECF021213D5D4D0021213D556D202125C
:102C630013D5ADD2021213D55BD3021213D500D400
:102C7300021213D559D4021213D517D5021213D544
:102C8300A9D5021213D508D6021213D54AD60212B9
:102C930013D57BD6021213D5D2D7021213D50080D7
:102CA300031213D53280031213D56B80031213D58D
:102CB3002982031213D5FF82031213D55E830312F5
:102CC30013D57484031213D5C084031213D54E870E
:102CD300031213D5288A031213D56F8B031213D54E
:102CE300078C031213D5138C031213D55C8C0312B8
:102CF30013D59E8D031213D5948E031213D5BE8E56
:102D0300031213D5148F031213D56D8F031213D52A
:102D1300E08F031213D51692031213D5989303125F
:102D230013D58394031213D5CD95031213D50598A8
:102D3300031213D5029B031213D5119B031213D550
:102D4300A59B031213D5509C031213D5939C031216
:102D530013D5DC9C031213D52C9D031213D5909D20
:102D6300031213D5029E031213D51E9E031213D50D
:102D73004D9E031213D58C9E031213D5879F031206
:102D830013D536A0031213D5B3A2031213D5E5A3AB
:102D9300031213D5BDA4031213D53FA5031213D5F4
:102DA30074A9031213D5A3A9031213D5FEA9031201
:102DB30013D531AA031213D5A9AA031213D5DCAA7A
:102DC300031213D53DAB031213D58DAB031213D5E9
:102DD3005AAC031213D513AD031213D5D7AD031297
:102DE30013D551B0031213D5B3B1031213D504B3E2
:102DF300031213D528B4031213D52BB4031213D51E
:102E03005AB4031213D552B6031213D511B70312D2
:102E130013D540B7031213D55EB8031213D526B9E1
:102E2300031213D5E4BA031213D516BB031213D539
:102E330058BB031213D557BC031213D5CABC0312D4
:102E430013D5F3BE031213D552BF031213D5A6BF76
:102E5300031213D5D5C1031213D5B8C2031213D568
:102E630074C3031213D588C3031213D59CC303126F
:102E730013D5C9C3031213D5F9C3031213D5B4C5AC
:102E8300031213D5C6C6031213D51BC7031213D5DA
:102E930064C7031213D58BC7031213D553C8031288
:102EA30013D5F9C8031213D57FCA031213D5C6CAA3
:102EB300031213D538CB031213D58DCC031213D5BC
:102EC30036CD031213D56ACD031213D582CD031267
:102ED30013D525CE031213D5A1D0031213D549D28E
:102EE300031213D567D2031213D585D2031213D558
:102EF30051D3031213D59FD6031213D5868401121F
:102F030013D5BE84011213D5BE89011213D5048AC9
:102F1300011213D53A8B011213D59F8B011213D5CE
:102F2300148D011213D51E90011213D5479101126E
:102F330013D55A9B011213D5EA9B011213D5D49EC4
:102F4300011213D5E19F011213D544A0011213D529
:102F53008CA1011213D5FAA3011213D58CA501126A
:102F630013D519A6011213D538A7011213D5C5A776
:102F7300011213D5CFA7011213D5F7A7011213D549
:102F830097A8011213D582A9011213D54FAA0112D2
:102F930013D56CAA011213D595AA011213D5C2AA8F
:102FA300011213D509AD011213D5D8AD011213D5F2
:102FB30017AE011213D599AE011213D53AAF011210
:102FC30013D56CAF011213D5B3AF011213D5E6AF0E
:102FD300011213D52AB0011213D579B0011213D5FA
:102FE3007EB0011213D5DAB0011213D51EB101124E
:102FF30013D5F8B1011213D55DB2011213D5C3B2C3
:10300300011213D53EB3011213D5A6B6011213D57F
:10301300A9B7011213D527B9011213D53DBC01126B
:1030230013D5DFBC011213D528BF011213D5E3BF9B
:10303300011213D522C0011213D5FAC1011213D5FF
:1030430017C2011213D520C2011213D529C20112CE
:1030530013D534C2011213D553C2011213D5F7C3CA
:10306300011213D554C4011213D55EC4011213D532
:1030730068C4011213D5C7C4011213D511C50112B7
:1030830013D512C6011213D569C6011213D57AC717
:10309300011213D5C3C7011213D57DC8011213D56D
:1030A30094C9011213D569CA011213D5B0CB011209
:1030B30013D5B4CC011213D5ADCD011213D5C5CDA3
:1030C300011213D5FCCD011213D506CE011213D56F
:1030D30010CE011213D51BCE011213D539CE011216
:1030E30013D581CE011213D5DFCE011213D506CF2E
:1030F300011213D518CF011213D5CDCF011213D559
:1031030006D0011213D528D1011213D57BD1011298
:1031130013D561D2011213D588D2011213D5F8D277
:10312300011213D574D3011213D5D0D4011213D5C0
:10313300F7D5011213D5B9D6011213D587D70112CA
:1031430013D545D8011213D52DD9011213D5D7D9CB
:10315300011213D53FDA011213D5F4DA011213D594
:1031630050DB011213D5A8DB011213D56EDC01125B
:1031730013D591DC011213D54CDD011213D56EDD8D
:10318300011213D5CFDD011213D5FFDF011213D5C1
:10319300F8E0011213D5A4E1011213D5C5E301121E
:1031A30013D50EE4011213D559E4011213D5B5E476
:1031B300011213D513E5011213D537E5011213D507
:1031C3005BE5011213D590E5011213D5B8E50112A1
:1031D30013D5FDE5011213D551E6011213D5AAE665
:1031E300011213D5A4E7011213D542E9011213D535
:1031F30087E9011213D5B0E9011213D539EA011297
:1032030013D5ACEA011213D5BAEA011213D5DEEADB
:10321300011213D534EB011213D54FEB011213D561
:103223000AEC011213D536EC011213D579EC011215
:1032330013D5DCEC011213D5EAEE011213D516EF08
:10324300011213D5D1EF011213D5B5F0011213D525
:1032530049F1011213D549F2051213D581F2051272
:1032630013D5A2F2051213D5E4F2051213D548F3D0
:10327300051213D552F3051213D562F3051213D5B4
:1032830099F3051213D542F7051213D50AF905125E
:1032930013D5EEFA051213D590FB051213D51AFCBC
:1032A300051213D55080041213D5F980041213D5D7
:1032B300D881041213D5E482041213D504830412B3
:1032C30013D52684041213D5D685041213D5438649
:1032D300041213D51487041213D51A88041213D5B4
:1032E3009288041213D5CD88041213D526890412AB
:1032F30013D56189041213D5AA89041213D53E8A02
:10330300041213D5D48A041213D5A98B041213D52E
:103313007C8C041213D50A8D041213D5308D04123C
:1033230013D55D8D041213D58E8D041213D55B8EC8
:10333300041213D56B8E041213D5BE8E041213D54B
:10334300CB8E041213D5D88E041213D5E18E04123A
:1033530013D5458F041213D5A38F041213D5EE8F03
:10336300041213D50990041213D53090041213D507
:103373004D90041213D55990041213D5EA910412F7
:1033830013D50392041213D57F92041213D592928C
:10339300041213D5A292041213D54693041213D523
:1033A300B294041213D5C595041213D5659604126D
:1033B30013D56F96041213D5EE96041213D5FF9608
:1033C300041213D53E97041213D56C97041213D528
:1033D3003998041213D59098041213D5C99804127E
:1033E30013D51F99041213D53D99041213D58B9944
:1033F300041213D5569A041213D5A49A041213D5A2
:10340300F19A041213D5749B041213D59E9B0412D4
:1034130013D5D49B041213D5E39B041213D5429CFA
:10342300041213D5BA9C041213D5FB9C041213D5B2
:103433004B9D041213D5769D041213D5909D04124F
:1034430013D5AA9D041213D57F9E041213D5899E0A
:10345300041213D5C49E041213D5D49E041213D59B
:10346300259F041213D5399F041213D55BA00412B0
:1034730013D570A0041213D503A1041213D577A199
:10348300041213D51CA2041213D527A2041213D5B8
:103493008AA3041213D5A6A3041213D5F2A304120C
:1034A30013D560A4041213D592A4041213D5ACA4AB
:1034B300041213D50CA5041213D5ABA5041213D50E
:1034C300F6A5041213D549A8041213D5E1A80412D2
:1034D30013D558A9041213D5B5AB041213D5CDAB2C
:1034E300041213D5D0AB041213D5DCAB041213D5DD
:1034F300F0AB041213D5F8AB041213D52FAC04129E
:1035030013D523AD041213D5ADAD041213D52FAECD
:10351300041213D5AFAE041213D586AF041213D51C
:10352300A8AF041213D541B0041213D59EB00412F0
:1035330013D5A1B0041213D510B1041213D55CB284
:10354300041213D56FB3041213D5FAB3041213D5AF
:103553000DB5041213D5D4B5041213D505B6041250
:1035630013D52BB6041213D534B6041213D563B690
:10357300041213D513B7041213D5C3B7041213D50A
:1035830036B8041213D5D9B8041213D54CB90412A2
:1035930013D58BB9041213D5D4B9041213D5508C97
:1035A300061213D5B58B061213D5268A061213D528
:1035B3009DFC041213D522FB041213D520FA041226
:1035C30013D5E1F7041213D58BF7041213D5CEF5F7
:1035D300041213D545F3041213D5BFF2041213D505
:1035E3007BF1041213D5A6DD051213D5C7DC051232
:1035F30013D537F0041213D5B0EF041213D522F903
:10360300061213D585F8061213D5F8B9071213D588
:10361300D0B9071213D563B9071213D503B907122B
:1036230013D5B8D0051213D5DECF051213D514CF99
:10363300051213D583CD051213D54CCD051213D521
:103643001ECD051213D5D2CC051213D53BCC0512D2
:1036530013D5ABCB051213D585CB051213D53ACBB6
:10366300051213D504CB051213D587CA051213D53A
:1036730022CA051213D5D1C9051213D5F9C80512EB
:1036830013D569C8051213D51DC8051213D598C7DC
:10369300051213D553C7051213D537C7051213D512
:1036A300DFC5051213D53DF5061213D5B1C50512B5
:1036B30013D5BAF4061213D567F4061213D5EDDE4B
:1036C300071213D5D2DE071213D57F92061213D534
:1036D3002191061213D5B890061213D54F900612F6
:1036E30013D57EC5051213D502C5051213D58395CF
:1036F300071213D57494071213D52F8F061213D5FF
:10370300AE93071213D53593071213D5FEF10512A5
:1037130013D5A5F1051213D5718E061213D570F1C9
:10372300051213D51082051213D53BF1051213D5DB
:1037330007F1051213D59AF0051213D582F005127D
:1037430013D55DF0051213D536ED051213D509EB2C
:10375300051213D510E9051213D59CE8051213D5EC
:103763004DE8051213D507E8051213D5A9E705128D
:1037730013D5C6AC061213D534AC061213D5B88DC7
:10378300061213D549AB061213D5D1A9061213D5C8
:103793008CA7061213D5C7A6061213D567E202003B
:1037A300000080FB8F0001002C1B87000100FC1D23
:1037B30035000400C01D25000200C41D26000200C0
:1037C300C61D27000200C81D28000100D21D2900C4
:1037D3000100D31D84000400D41D86000100D81D00
:1037E3002A000100D91D2B000100DA1D2C00010065
:1037F300DE1D2D000800141B2E000100DF1D2F000D
:103803000100E01D30000100E11D31000100E21D57
:10381300320001001C1B330001001D1B340001009A
:10382300E31D360001001E1B38000100E41D3900B2
:103833000100DD1D83000200FA1D63000100291B46
:1038430064000100DB1D65000100DC1D6D0001004B
:103853002A1B710008000C1B66000100F91D4300C0
:103863000100EA1D44000200EB1D45000100ED1DAF
:1038730046000200EE1D47000800211B480001001E
:10388300F01D4B000100F11D04000100FD1DA1000E
:103893000100001E37000100FF1D88000100FE1D0E
:1038A3003C0001001F1B3D000100E51D4900020013
:1038B300F21D670001002B1B4D000200F41D4E009A
:1038C3000100F61D4F000200F71D3E000100E91D37
:1038D30051000100E61D52000100E71D53000100E5
:1038E300E81D54000100201B00000000000000013F
:1038F3003636010100010201000103010001040148
:10390300060605020000070100340801000F090440
:1039130001010D0100FF0E0800001702000019014C
:1039230000FF1A0100011B0100FE1C0100081D021B
:1039330000001F01000120010001210200002301FA
:10394300000F2402000026010001270100082802BD
:1039530000FF2A0100072B0102402C0100002D016A
:1039630000012E0100012F0100FF30010B1D310862
:1039730000003A0100083B01000F3C0100013D013A
:1039830000FF3E04000042040000460400004A0415
:1039930000004E04000052040000560400005A04C4
:1039A30000000000000020018284000001002001CB
:1039B30082840000020020018484000003002001AF
:1039C30083840000040042016D8000000500420171
:1039D3007E80000006004201A08000000700200155
:1039E300AB80000000404201A080000010004201B3
:1039F3008F80000011002001010700001200100356
:103A03008B1D060000001011000008000000203389
:103A130000000C005500393300000C001C00423339
:103A23000000120055002001000014000E00422285
:103A330000000103710301030103010301030103F7
:103A43002203020301031003000300030003000326
:103A530000030003000342030003240306030003DF
:103A63000003040312032503230325032303040391
:103A730004030003000300034403000300032303C0
:103A830000036503210035038103000305030003DD
:103A93000003000300032503230303007100300127
:103AA30060001100700031022003500480001000F8
:103AB30061000000140063007300720062004300A1
:103AC30000001300060000000000040012000000C4
:103AD30000000000000004000400370037003C022F
:103AE30044000000000000000000650000003500F5
:103AF3008100000005000000830000000101710146
:103B030001010101110101013101010101018001E3
:103B1300100161013B001400630173017201620132
:103B230043010001130106013D01350004011201A7
:103B3300000100010001000104010401330133010C
:103B43003C0144013201360000010001650100011E
:103B53003500810100010501820183010001030495
:103B630071040204600411047004020402040104D9
:103B73000204100461040004140463047304720453
:103B83006204430400041304060400040004040450
:103B9300120400040004000400045104640000043F
:103BA3000004000444040004000400040004650449
:103BB3000004350481046400050400048304000444
:103BC300030271023001600211027002010202025B
:103BD30002028002100261023A0041006302730292
:103BE3007202620243020002130238000002000262
:103BF3000402120200020002000200020402040294
:103C0300370037003C024402000239000002000280
:103C1300650200023502810200020502820283026C
:103C2300000236000100060000000F000000000043
:103C3300000000000000000003FFFF00000403FF7A
:103C4300FF0000FFFF0FF4010005C404032000017F
:103C530000000B000000000000000003010F000043
:103C63000000000000000000000000000000000051
:103C73000000000000000000000000000000000041
:103C8300C8232224CE23D222D4232824D423342489
:103C9300DA23D222D4232824E023D222E623D222F9
:103CA300EC23D222F223D222F823D222FE23D222E1
:103CB30004243A240A24D222000000000000000059
:103CC3000000000010244C241624D22210244C247B
:103CD3001624D22204243A241C24D22200003A2798
:103CE3001300E6261F00EC261F80F22601003A2768
:103CF30002006E260300742604007A26050080263F
:103D030006008C263000AA263100A4263200B626EF
:103D13003300BC263500C2263400C8263600CE2622
:103D23001100DA261400E02615009E26FFFF00008E
:103D33000A00000002000000040000000800000068
:103D43001000000020000000400000008000000080
:103D53000001000000020000000400000008000051
:103D630000100000002000000040000001382F0672
:103D7300622F085C2F0B7A2F10502C023E2F055018
:103D83002F07442F0C202F0D2C2F644C2AFF0000EB
:103D930007ECFDFDFDECDCDCCCBCACAC9C9C8C7C72
:103DA3007C6C6C5C5C5C4C4C3C3C2C2C1C1C0016F2
:103DB3000F00000B150B020002220F3300000E5AF6
:103DC3006967426565416C6C69616E636530390191
:103DD300030507090B0D0F00020406080A0C0D1456
:103DE3000AE5D5C5B5A5A59585857565000119169F
:103DF30018161618230300303017181921301B1D0D
:103E03001F30303016181920231A1C1E3000034AA5
:103E130049434E181A25050200393D3F373C3C36CD
:103E23002C442D0C0E020B040B0A0708000F02048E
:103E330002010101010902E803000000BE040A9324
:103E43003D00000000E23D0E00FA067F00E803FF9C
:103E53001E1E00050C0804040010280908090301AC
:103E63000C05030815120300FF0A0C1004C082C0DE
:103E730083E990197CF002417574F4120DF38A08FA
:103E83008B09EB5480604D800EEEFAEFFB12233268
:103E9300EEFAEFFB121F4E90197CE0F9121F608AB5
:103EA3000A8B0BAE0AAF0BEE4F60208E828F83E03E
:103EB300641A60D5EEFAEFFB1222CCE9F974FF69BC
:103EC30060CEEEFAEFFB121F5480CCAA08E509641A
:103ED30080FB80047A007B0002415D74F7120DF3CE
:103EE3007AFF02559D74F6120DF3E9FEEAFF7A0498
:103EF3007B00124570A808A909EA496034EF8A8259
:103F03008B83A3A3A3F0EE8A828B83A3123F6CE47B
:103F1300F0A3F090198B124590700990198BE8F07B
:103F2300A3E9803FE0FB8A828B83A3A3A3E06F70A6
:103F33000479008031EAFCEBFD8A828B8312459081
:103F430070E474FF6F700C8C828D83123F73E4F006
:103F5300A3801090198B125EC490198B123F73EAE1
:103F6300F0A3EBF07901025746A3F08A828B8322F8
:103F7300126DDB8882898322C082C083EA126EDDE0
:103F83003BF583E0FA90198B800488828983125D64
:103F930066601C88828983A3A3A3E0FBEA6B6005A8
:103FA30074FF6B70E588828983A3A3E0F9800279AB
:103FB300FF02417574F4120DF3EAFEEBFF8A82F5FA
:103FC30083125EC41222CCE9F50874FF6970030200
:103FD30040687A197B00121F48EA4B70030240685D
:103FE3008A828B837434126945A3EA2402FCE43B7E
:103FF300FD740612134E8E828F8312722D8882F502
:1040030083126EEF8A828B83A3A3A3A3A3A3A3A389
:1040130012406DA3A3A3A3A3A3EA240AFCE43BFDDC
:10402300740C12134E8E828F83125FF7C8126EDDEB
:1040330038F583E0C0E0EA2416F582E43BF583D04B
:10404300E0F0EE240CF8E43FF98882F583126EF376
:10405300EA2417F582E43BF58312406DE4F0A3F004
:10406300A908121F54790102415DECF0A3EDF08819
:1040730082898322C082C083901989125EC402415F
:104083007574F4120DF38A088B09ECFEEDFF7A08C0
:104093001240D7700479108038124141124169747B
:1040A3000C12177F125EC488828983A3A3A3A31271
:1040B300788790198112459090198160111241649B
:1040C3008003EAFCEB12458B70F88C828D831241DE
:1040D3003B02415D7B00121FDE8A0A8B0BA80AA9F3
:1040E3000BEA492274F4120DF389088A09ECFEEDF8
:1040F300FF7A0A1240D770047910803A1241418A3C
:10410300828B83A3A3A3E4F0A3124154E5091241D4
:1041130054A3EEF0A3EFF090198512459090198502
:1041230060111241648003EAFCEB12458B70F88C3A
:10413300828D8312413B8022126DDB790022124172
:1041430045228A828B83E4F0123F6CA3A3E508F037
:104153002212558EA3A3221214057F040211428F4B
:1041630083E0FCA3E022A3E509125593EEF0A3EF4D
:10417300F022D083D0820213D274F2120DF3EAFE3E
:10418300EBFF8C088D0912234A8B0DA90DEA4960B8
:10419300198A828B83A3A3A3EEF0A3EF12558AE5BA
:1041A30008F0A3E509F0790080027901025F467403
:1041B300F4120DF374F71214E8E9FE8518828519D9
:1041C300837401F0EC7006EDC39406404D74036AEA
:1041D3004B604774011214BA880A890B780A1213C8
:1041E300F27C127D007A007B00EE12422812140545
:1041F300E9601CE4F50AF50B780A1213F274031252
:1042030014CA74021214C212239E74021214058576
:104213001882851983E064017004790180027900B2
:10422300740902415AF912235074022274E8120DE0
:10423300F374FA1214E889128A168B178C088D0905
:1042430012373C8A148B15EA4B700579020243BE80
:10425300AA08AB09A912122368E9F50FA2E6401CCC
:10426300901989125D666014E82419F582E439F522
:1042730083E064017006E50FD2E6F50F7C067D004E
:104283007900AA18AB19121F36741F12177F124335
:10429300C36009E054FCF0E044018003E054FC12E5
:1042A30072D5125D66602B741E12177FE0FE888242
:1042B3008983A3121209EEFD740212177FE05403DF
:1042C300FCAA08AB09A9121222F07402121405E920
:1042D300700579010243BE742212177F125D666076
:1042E30012851882851983E04404F0740212177F43
:1042F300126DD7742012177F1243C36005E0440880
:104303008003E054F7F0742112177F1243C3600552
:10431300E044108003E054EFF0742412177FE0C0F0
:10432300E0740412177FD0E0F0740512177FEEF0EB
:104333007803851882851983E05404600278057434
:104343002512177F1249B7E82510FEE43511FF1235
:1043530046556063AC0AAD0BAA18AB1912233E7421
:104363002712177F125ED61213EEAC10AD11126135
:1043730045121405750C1E780C1213F6750C7F7517
:104383000D19780C1213F2780A1213F28E0C8F0D9A
:10439300780C1213F278081213F2A90FAC14AD15AE
:1043A300AA16AB171237487409121405E9FEAA0AB4
:1043B300AB0B121FE480027E10EEF97406026DE56A
:1043C3001243C722E08518828519832274EA120DED
:1043D300F374FE1214E8890B8A148B158C0E8D0F5F
:1043E3007E007F00750A00741812177F1249B78088
:1043F300111245811223AA8B09EE2AFEEF3509FF1C
:10440300050A126BF0502EE50A75F00612496E2468
:1044130003FEE43FFFA3A3E070E60EEE70010F88F6
:10442300828983A3A3A3A31245908882898360C151
:10443300125CD780C2EEFAEFFB1245708A0C8B0D2B
:10444300EA4B7003024564750A008030A818A91965
:104453008812891378121213F278081213F28A82DF
:104463008B831245811223B0740412140512722730
:10447300E50828F508E50939F509050A126BF05036
:104483007CE50A75F006A4F8A9F0E51028F582E5A5
:1044930011126BD71245788A828B83A31254FEF0D4
:1044A3001255721254F9F0E5082403F50850020579
:1044B3000988828983E070C2EA240308E43BF9880F
:1044C30082F583124578A38582088583098A828BC6
:1044D30083A3A3A3A31241648C82F583E58245835E
:1044E300700302444FAC08AD09AA82AB838882896A
:1044F30083E0F91223808A088B0902447D780C1229
:1045030013F28E088F0978081213F2742012177FA2
:104513001249AD1213F6E4F508F50978081213F2FF
:10452300742212177F1249AD1213F6742212177FE9
:104533001249AD1213F675080078081213F67508C0
:104543000178081213F6AC0EAD0FAA14AB15A90B24
:10455300124E4B121405E9FEAA0CAB0D121FE48098
:10456300027E10EEF9740212140502459E121FDE3C
:104573008A088B0922E0850882850983F02212725A
:10458300C3AA0EAB0FA90B22FD8C828D83125ECCC6
:10459300EA4B22EEF98004AA12AB137F0E021142FA
:1045A30074EC120DF3890A8A108B11ECFEEDFF7483
:1045B3001412177F1247A97003024646A808A909D7
:1045C3007C00800D12478C50010B1247BC5001092F
:1045D3000C850C82850D83E0FAECC39A40E67401E6
:1045E3006A700AA3E07006750E01750F0078081251
:1045F30013F2780E1213F2741C12177F12478612ED
:1046030013F6E4F50CF50D780C1213F2741E121761
:104613007F1247861213F6741E12177F12478612F3
:1046230013F6750B00780B1213F6750B04780B1247
:1046330013F6124E41121405E9FEAA08AB09121F24
:10464300E480027E1002476F740A1214057F0C0285
:104653001142EEFAEFFB121FDE8A0A8B0BEA4B22A2
:10466300F58312588E22F8E4350DF98882F583120A
:10467300499DA322851082851183E0F8E508C3983C
:104683002274EC120DF3890A8A108B11ECFEEDFFF4
:10469300741412177F124774F508750900740278B1
:1046A3000812164D85080E85090FAA0EAB0F12745A
:1046B30092700302476D7900803EE9F5127513008D
:1046C3007402781212164DE50C2512FCE50D351314
:1046D300FD8C82F583A3124665124F77A3124665BC
:1046E300A3F0EC2403FC50010DF5828D83E0124FFF
:1046F30071124F4B50010B09850C82850D83E0F835
:10470300E9C39840B5740168700AA3E07006750E9A
:1047130001750F0078081213F2780E1213F2741C4D
:1047230012177F1247861213F6E4F50CF50D780C79
:104733001213F2741E12177F1247861213F6741E99
:1047430012177F1247861213F6750B00780B12139C
:10475300F6750B07780B1213F6124E41121405E986
:10476300FEAA08AB09121FE480027E10EEF902468E
:104773005012477822E0F50CA3E0F50D850C82F585
:1047830083E022E0F50B780B22EC75F003A4FAAB7F
:10479300F0E50C2AFAE50D3BFB8A82F5831249CA40
:1047A300F0EA2402FA2212477875F003A4F50EE525
:1047B300F0F50FAA0E12728022F5828B83124B81C1
:1047C3001249C3A3A3F0E82403F82274E8120DF3FB
:1047D30074FE1214E8124A1512177F1249B78009A2
:1047E300EE2402FEE43FFF05081246775037E50842
:1047F30075F00D12496E2404FEE43FFFE070E8A358
:10480300E070DDEE2405FEE43FFFE82404F50AE44E
:104813003912498960D1850A82850B83E0F9122315
:1048230092EE2980BE12465570030249698A0E8BA7
:104833000F7508008018E50C2409FAE4350DFB8A8E
:10484300821249971249BFF08C0E8D0F050812464C
:10485300774003024906E50875F00D1249D1AA8293
:10486300AB83124672F0E50C24021246691249E644
:10487300A3F0E50E2404F50E5002050F850C828586
:104883000D83E070C7E50E2402FCE4350FFD850EB1
:1048930082850F83A3A882A9838A828B83E0709683
:1048A300E50C2404F512E4350DF513851282124943
:1048B30097F0E50C2405F516E4350DF517851682FA
:1048C3001274961249F82407F8E4350DF988821218
:1048D3004997124A0DF0E50E2405F50E5002050F17
:1048E300851282851383124990700302484FAC0EE0
:1048F300AD0FE50C240BF582E4350DF5831249A5C4
:1049030002484F780A1213F28E0C8F0D780C121393
:10491300F2742212177F1249AD1213F6E4F50CF567
:104923000D780C1213F2742412177F1249AD12136F
:10493300F6742412177F1249AD1213F67508007826
:10494300081213F675080978081213F6AC14AD159E
:10495300740B12177F12497E121405E9FEAA0AABE3
:104963000B121FE480027E10026DE1A4F8A9F0E5AA
:104973001028F582E511124B1CEE22125ECCA90918
:104983001222F6740B22F50B850A82F583E0F912E5
:104993002386E922F58312499D22E0850E82850F45
:1049A3008322124B868A0E8B0F22E0F508780822A9
:1049B3008E828F83E0F510A3E0F511221249C32202
:1049C300123F6D1249CA22A3E08882898322126DA5
:1049D300A585820C85830D12499DF0850C82850D7A
:1049E30083A3221249EA22A3124C23E0850E828577
:1049F3000F83A3A322F0851682851783124A06F03C
:104A0300E50C22A3E08C828D8322A3A31249EAA39F
:104A1300A322851882851983EAF0A3EBF089098C18
:104A2300148D157E007F00750800741A2274EA1233
:104A33000DF3890B8A108B118C0E8D0F7E007F0076
:104A4300750A00741612177F1253B98003124AE9CC
:104A5300850C82850D83126BF640F2EEFAEF127429
:104A630091607EA808A909750A008003124B258569
:104A73000C82850D83E0FAE50AC39A40EF780812A9
:104A830013F28E0C8F0D780C1213F2741E12177F13
:104A9300126C1C1213F6E4F50CF50D780C1213F2DC
:104AA300742012177F126C1C1213F6742012177FD6
:104AB300126C1C1213F6750A00780A1213F6750AA3
:104AC3000A780A1213F6AC0EAD0FAA10AB11A90B9C
:104AD300124E4B121405E9FEAA08AB09121FE4801B
:104AE300027E10024596E50A75F005A4F8A9F0E5E3
:104AF3000C28F582E50D124B1CA3A3A312788FA3F8
:104B0300A3E0F91223988B09EA2403F8E43509F9A1
:104B1300EE28FEEF39FF050A2239F583A3A882A9FF
:104B23008322E50A75F005A4FAABF0124B75858272
:104B3300148583151249CB124F6C88828983A3F0A5
:104B4300E5141275D235158A12F5138A82F583128C
:104B53004B81A3F0E82403FCE439FD851482851519
:104B630083A3A3A3124B868A128B13A812A913053E
:104B73000A22E50C2AF582E50D3BF583A3221249AF
:104B8300CBA322125ED0851282851383E0F9122310
:104B9300802274F6120DF374FE1214E8E9FE740C0D
:104BA30012177F124C14C0E0740112177FD0E0F08B
:104BB300A818A9198808890978081213F275080238
:104BC30075090078081213F2741612177F1249AD93
:104BD3001213F6741512177F121209741612177F27
:104BE3001249AD1213F6741612177F1249AD121340
:104BF300F675080078081213F675080B7808121377
:104C0300F6EEF9124E4B12140574021214050257F4
:104C1300461272EF8882F5831243C7124C23E022B7
:104C2300F088828983A32274EA120DF389138A1010
:104C33008B11ECFEEDFF741612177F1275F0E50A67
:104C43002402F50CE4350BF50D850C82F583E004A5
:104C5300751200F50E750F00FAAB0F127492700304
:104C6300024D55850A82850B83124E35801EEAFC60
:104C7300850A82850B83A3A3A3E02CFBA3E0340066
:104C83008B82127496F0A3A882A9830A850C82856D
:104C93000D83E0FBEAC39B40D5850A82850B83A382
:104CA300E0F8741812177FE0F9741912177FE0FA0D
:104CB300741A12177FE0FB741168703978081213A5
:104CC300F2780E1213F2EBF50A780A1213F6E4F5F2
:104CD3000AF50B780A1213F2EAF50A780A1213F6A8
:104CE300E9F50A780A1213F6750A00780A1213F620
:104CF300750A12803C741368704F78081213F278A7
:104D03000E1213F2EBF50A780A1213F6E4F50AF51C
:104D13000B780A1213F2EAF50A780A1213F6E9F588
:104D23000A780A1213F6750A00780A1213F6750A3E
:104D330014780A1213F6EEFCEFFDAA10AB11A913B7
:104D4300124E4B121405E9F512AA08AB09121FE41F
:104D53008003751210A91202459E74E8120DF3899F
:104D6300108A128B13ECFEEDFF741812177F124F8B
:104D73005775F003A4A9F02401F50EE43912748DDC
:104D83007003024E2E850C82850D83124E35802EC4
:104D9300EA75F003A4FCADF0E50C2CFCE50D3D1227
:104DA3004F3D127496124F6888828983124F7E8812
:104DB300828983A3A3F0E82403F85001090A850A32
:104DC30082850B83E0FBEAC39B40C578081213F28C
:104DD300780E1213F2742012177F126C1C1213F642
:104DE300E4F50AF50B780A1213F2742212177F12F4
:104DF3006C1C1213F6742212177F126C1C1213F61A
:104E0300750A00780A1213F6750A0D780A1213F65A
:104E1300EEFCEFFDAA12AB13A910124E4B121405B0
:104E2300E9FEAA08AB09121FE480027E10EEF90224
:104E33006DE812588EF0A3A882A9837A0022EEFCB3
:104E4300EFFDAA10AB11A90A1222F6740B2274E823
:104E5300120DF389128A108B11ECFEEDFF741812F8
:104E6300177F124F57F50875090074027808121658
:104E73004DE5082401F50EE4350912748D70030223
:104E83004F38850C82850D83125885A3AA82AB8384
:104E930079008034E9F5147515007402781412163C
:104EA3004DE50C2514FCE50D3515124F3D124663F7
:104EB300124F688A828B83124F7E124F71A3A3A372
:104EC300A3124F4B50010B09850A82850B83E0F82F
:104ED300E9C39840BF78081213F2780E1213F274E4
:104EE3002012177F126C1C1213F6E4F50AF50B78E7
:104EF3000A1213F2742212177F126C1C1213F67427
:104F03002212177F126C1C1213F6750A00780A120C
:104F130013F6750A16780A1213F6EEFCEFFDAA10C3
:104F2300AB11A912124E4B121405E9FEAA08AB09E4
:104F3300121FE480027E10024E30FDEC2402F514B1
:104F4300E43DF5158514822212588EA3A3A3F0EA3B
:104F53002404FA221253BD850C82F583A385820AA9
:104F630085830BE022124F6C221272DBE0228A82CD
:104F73008B83A3A3F08C828D83A322A3F08C828DD9
:104F830083A3A3A3A3E02274F1120DF374EB121411
:104F9300E8EAFEEBFFC200EA2420F8E43F8808F5C4
:104FA300098882F583C3E09403A3E0940050057954
:104FB300010253B1901989127889740212177F1272
:104FC3007889740E12177FE4F0A3F0740A12177F26
:104FD300E4F0A3F0740C12177FE4F0A3F0EA2422A8
:104FE300F8E43F880AF50B8882F583126EF37404A4
:104FF30012177FAA82AB831223388A0C8B0DA80C5D
:10500300A90D740A12177F1278898508828509838E
:10501300125EC4EAC398F8EB99F9850A82850B837B
:10502300E028F8A3E039F9740C12177F126DD774D6
:105033000812177FE0901980F0EE2414F508E43F7E
:10504300F509850882F583E0F912373C8A828B8360
:10505300E5824583700C901989E4F0A3F07902028C
:1050630053B11253FF602BEE2404F50AE43FF50B12
:10507300A3121209740B12177FE0FD740612177F37
:10508300E05403FC12540E1222F07402121405E9C8
:10509300700C901989E4F0A3F079030253B1125410
:1050A3000E122368E9F50E850A82850B83125EC40E
:1050B300EAFCEBFD901981800488828983125D6686
:1050C30070030251AD88828983A3A31253B9C3EA43
:1050D300950CEB950D40E288828983A3A3A3A3C318
:1050E300E09CA3E09D40D2E8FCE9FD740412177F25
:1050F300E05407700D740912177FE0640B7003020C
:1051030051B1E50EA2E640030251B1EE2419F58236
:10511300E43FF583E060030251B1740212177F127A
:1051230053D7707A740212177F125D6170707C001E
:10513300850882850983E0F912236E740112177FB3
:105143007401F0740912177F1253C512177FE0F52B
:105153000C780C1213F6740712177F121209750CD0
:1051630001780C1213F6740812177F1274A212132B
:10517300F674051214BA880C890D780C1213F274A4
:105183000912177F1253F612177F1253CB12177F90
:105193001253E51214057C0112540E12236E90195A
:1051A30089E4F0A3F079050253B17C007D00740417
:1051B30012177FE0F8540360030252CCE8540460F2
:1051C300057E8402530B740912177FE0F8C394170A
:1051D30040030252C8E8F50A750B007402780A12FC
:1051E300164D7483250AF582743C350B12586DE80D
:1051F3004970030252C8850882850983E0C0E074C0
:105203001012177FD0E0F0740C12177F125EC47473
:105213001112177F127889740A12177F125EC474F1
:105223001312177F12788974101214C2888289832B
:10523300120FC28B09A909740E12177F127889EA1B
:10524300496048740912177FE0F508750900740274
:10525300780812164D74852508F582743C3509F5D6
:1052630083E493F87401938882F583E58245836030
:105273001274021214C2120FC2740E12177F125D3F
:10528300666008740E12177F127838740912177F3C
:10529300E0F86054740268604F740368604A7406EF
:1052A3006860457408686040740C68603B741168FA
:1052B30060367413686031741568602C740B686011
:1052C300277E0080437E82803FEC4D602B8C828D55
:1052D30083A3A3A31253FF601F74021214C2120FFD
:1052E300C2E9FE74FF6E700B901989E4F0A3F0F924
:1052F3000253B174016E7010740412177FE05404EA
:1053030060047E8380027E81740212177F1253D75A
:105313007075740212177F125D61706B740412173B
:105323007FE0FA54107060740112177FEEF0740975
:1053330012177F1253C512177F1249AD1213F67459
:105343000712177F12120975080178081213F6EA7B
:10535300131313541F64015401F50878081213F64C
:1053630074051214BA8808890978081213F27409AB
:1053730012177F1253F612177F1253CB12177F1295
:1053830053E5121405D200901989E4F0A3F0EE70EE
:10539300047900801974846EA200700A500479079E
:1053A300800C790680085004790980027908741505
:1053B300121405025CD11253BD22E0F50CA3E0F5F3
:1053C3000D22127833740822E02406FAA3E0340095
:1053D300FB740922125FF7C82415F582E438F583BC
:1053E300E022A3E0C8126EE138F583E0F912231A34
:1053F3007407221271D31272BF740922A3A3A312DA
:105403005FF78882F583E582458322850A82850BCF
:1054130083125ECC850882850983E0F92274F41235
:105423000DF38A088B09ECFEEDFF7C067D00790005
:10543300121F36850882850983E054FCF8A3E0F93E
:105443008E828F83E05403FAE84A850882850983B4
:10545300F0A3E912787FA2E25004D2F08002C2F0F6
:10546300850882850983E054FBF0A2F0E433F50A52
:10547300750B007402780A12164DE0450A12787F04
:10548300A2E3850882850983E0500444088002541E
:10549300F712787FA2E45004D2F08002C2F08508AC
:1054A30082850983E054EFF0A2F0E433F50A740433
:1054B300780A12164DE0450A12614B850882850968
:1054C30083E0540460108E828F83E0FAA3E0F9EA4C
:1054D30012669C50010F8E828F831254F9A31255CA
:1054E30007850882850983A3A3A3A3A3F0EE1275FE
:1054F300D23FFB02415D1254FEA322E08508828560
:105503000983A322A3126945E02274F7120DF38ADB
:10551300828B83E054038C828D831255855404124D
:10552300557E540812557E5410F88C828D83E048C2
:10553300F0A3AC82AD838A828B83E054046016129D
:105543005572124A07124C1E8C828D83A3F0EC24F1
:1055530002FC50010D8A828B83A3A3A3124A061275
:10556300558A124A07A3F0EC1275D23DFB802EEA4E
:105573002402F8E43BF98882F58322F88C828D8338
:10558300E048123F6DE02212558E22125593A3225A
:10559300F08A828B83A3A3A3A3221222C67F0102D4
:1055A3001142C082C08390198380048A828B831244
:1055B3004590600C8A828B83A3A3E06970ED80041D
:1055C3007A007B00024175C082C0839019858004F4
:1055D3008A828B8312459060138A828B83A3A3E014
:1055E300F8E968600B74FF6870E680047A007B005A
:1055F30002417574F0120DF38A088B09ECFEEDFF7E
:1056030012234A8A0C8B0DEA4B60627C0080010CEA
:10561300850C82850D83A3A3A3A3A3A3A3125FDD9C
:10562300504BECF50E750F007403780E12164D8572
:105633000C82850D83A3A3A3A31258778882F583D5
:10564300E493FA740193FBE5086A7003E5096B7050
:10565300BEA3A31256747002EF6B70B374101217CB
:105663007F12567E740812130A7901800279008032
:1056730015E493FA740193FBEE6A221272C38983D1
:105683008882221214057F0802114274F6120DF368
:105693001256BA6005125EC180047A007B0002577D
:1056A3004674F6120DF31256BA6005125EBF8004FB
:1056B3007A007B0002574612234A8A828B83E58253
:1056C30045832274F7120DF3E9FFEAFCEBFD901911
:1056D30087800488828983125D6660468882898315
:1056E300A3A3E06F70ED7E0080010E88828983A3FF
:1056F300A3A3E0FAEEC39A50DAEE75F003A4FA8599
:10570300F008AB0888828983A3A3A3A3E02AFAA3A2
:10571300E03BFB8A82F583E06C7003A3E06D70CA03
:1057230080047A007B000255A074F6120DF3122355
:10573300628A828B83E58245836006A3A3E0F980B6
:105743000279007F0202114274F6120DF3ECFF128C
:1057530023628B09A909EA496015EA2402F582E468
:1057630039F583EF6005E0D2E68003E0C2E6F0801E
:10577300D274F0120DF3EAFEEBFF8C098D0A1223AB
:10578300448A0C8B0DEA4B7003025862750B00744C
:105793001012177F126BEBFAE9FB80128C828D8358
:1057A300A3A3A3E493A2E35003025848050B850C7B
:1057B30082850D83A3A3A3E0F8E50BC398400302FE
:1057C3005862E50BF50E750F007402780E12164D34
:1057D300850C82850D83125877125867EE68700224
:1057E300EF6970C88A828B83E0F88C828D83A3A3D0
:1057F300E493C39840B67411650970197401650A7E
:10580300609AE50A70A68C828D83A3A3A3E493A276
:10581300E240328097741365097044E50A700D8C79
:10582300828D83A3A3A3E493A2E080E57401650AB8
:1058330060030257AF8C828D83A3A3A3E493A2E1F9
:1058430040030257AF741212177F12595E74041289
:10585300130A88828983A3A3125885790180027968
:1058630000025689E8FCE9FD8882F583E493F87425
:105873000193F922A3A3A3A3E0250EF8A3E0350F18
:10588300F92212588EF0228E828F83E08A828B83D4
:105893002274F0120DF38A088B098C0B12234A8AA7
:1058A3000E8B0FEA4B700302594B7A007B00741086
:1058B30012177F125FEA80050AEA70010B850E82D8
:1058C300850F83A3A3A3A3A3A3A3E0F8C3EA98EB41
:1058D300940050748A0C8B0D7403780C12164D854A
:1058E3000E82850F83A3A3A3A3125950125867E511
:1058F30008687003E5096970BFA3A3E493F50C740A
:105903000193F50D8E828F8312722DC3E50C98E5FA
:105913000D9940A48C828D83A3A3A3A3A3E493A294
:10592300E7E433650B7091741212177F12595E749A
:105933000812130A88828983A3A312722D8E828F81
:1059430083126DD7790180027900025689A3A3A33C
:10595300A3E0250CF8A3E0350DF9221272EF8C8237
:105963008D83E8FCE9FD2274F1120DF3EAFEEBFFEF
:10597300ECFAEDFBEE4F7003025ADCEC2402F50C5B
:10598300E43BF50D8C828D83A3AC82AD838E088FAF
:1059930009750A00E91212BA044142A95A4344BBE9
:1059A3005AE0E2745AE8E9205A2108125A09205AA7
:1059B3000A365A0B745A10125A18125A19205A1AC4
:1059C300365A1B745A20125A21205A22365A2374EB
:1059D3005A24855A258E5A26975A27A05A28125A8E
:1059E30029205A2A365A2B745A2C855A2D8E5A2E10
:1059F300975A2FA05A30125A31205A38205A3974E4
:105A03005A3AA05AEA745AF0A05AF1CD5ADC5A8E87
:105A1300828F83125885ECFAEDFB025ADC8E828F5B
:105A2300831246651255088C828D83F00A0AAB0DEA
:105A3300025ADC8E828F8378081217108A828B8336
:105A4300E50812694A7808121710E5098C828D83DC
:105A530012694A780812171074107808121489858D
:105A63000C82850D83E508F0EA2403FA506B0B8062
:105A7300688E828F83121205121FB47404121405E8
:105A8300805778081213EE7C05804678081213EECF
:105A93007C06803D78081213EE7C07803478081268
:105AA30013EE7C08802B78081213EE8E828F83E02E
:105AB3002401FCE43400800F78081213EE8E828FE9
:105AC30083125C66FCE439FD800978081213EE7CCE
:105AD300107D00126145121405025CD1C082C0839F
:105AE300E91212BA03202FF75A383AF75AE0E2F7CD
:105AF3005A00FB5A79018002790002417574F2124F
:105B03000DF374FE1214E8EAFEEBFF8C088D091204
