:020000040000FA
:0600000002162302095B59
:0300130002097D62
:03002B000213CEEF
:03003300020BA518
:03003B000209D2E5
:03004B000212AEF0
:0300530002089010
:03005B0002110788
:0300630002112265
:03006B00020B4B3A
:03007B00020B7CF9
:100083000208EF010020FD000201570500000001F6
:10009300071C131C0000191C251C000000002B1C4E
:1000A3004F1C551C5B1C00000000000000000101F8
:1000B3000204081020408001FFFF090D0104010024
:1000C300010000000000000006FFFFFFFFFFFF012B
:1000D30001010400F119000000E8030000FFFFBD67
:1000E3001AE803000064006400B801A0BB0D00A07F
:1000F300BB0D00020200F8FF0705021E0401051EE6
:1001030002051E020A0A01010808010310270280E2
:100113003E0102FEFFE8030A050001FFFF010A1486
:1001230001E0C503423F1A51123FF304B53F0000FB
:10013300803E010105030101FF0F10FEFF073B0095
:100143000000003D3A00000000FF000000FF001225
:100153001633601D1216427005191919801A1214EC
:100163009C701F1214C4C37003E667331919194036
:10017300071818182208080874FFF618F618F61856
:10018300F6221214C460171216E8702192F01216A8
:10019300F17019501720F014080808090909E7F647
:1001A3001819E7F61819E7F61819E7F6221216F1E7
:1001B30060E6E869701F0808E62480F608E436F66E
:1001C30018547FB47F0CE654806007F6E418F618E1
:1001D300F622181822E9C6CC08C6CD08C6CE08C632
:1001E300CFC0E0E8C0E0EAC0E0EBC0E009E9F8090D
:1001F300E7FA09E7FBE6F918E6F8C3EC98ED99EEA0
:100203009AEBC2E7F5F0EFC2E795F0500E600CEB06
:10021300CFFBEACEFAE9CDF9E8CCF8EAA2E7D2E7D8
:10022300FAEB33FB13F5F0EEA2E7D2E7FEEF33FF71
:10023300C5F013A2E730E601B313C5F0C3C0E0C0B5
:10024300F07F00C39BFB605E9418600F401D146039
:100253001AD0E023F9D0E0F80203338AF0E94860CA
:1002630003D2F0E4AFF0FAF9F8803BEB30E40D8908
:10027300F0EA6003D2F0E4AFF0F9CAF8EB30E30D33
:1002830088F0EF6002D2F0AFF0E4CAC9F8EB54078C
:100293006014FBC3EA13FAE913F9E813F8EF1350F8
:1002A30002D2E0FFDBEDD0E0C0E030E739C3E49FEA
:1002B300FFF5F0EC98FC42F0ED99FD42F0EE9AFE6A
:1002C30042F0D0E0F9D0E0F8E5F0607AE923F9EE06
:1002D30020E742D8028067C3EF33FFEC33FCED33F2
:1002E300FDEE33FE80EAEC28FCED39FDEE3AFED05C
:1002F300E023F9D0E0F84002801BC3EE13FEED13B8
:10030300FDEC13FCEF135002D2E0FF08B800067FA8
:100313007F74FF802EEF3350178CF020F0026010B3
:100323000CBC000C0DBD00080EBE000408E860DF25
:10033300E933E813FFEE2313FE4F4D4C8008E954D5
:1003430080FFE4FEFDFCEE33EF33F47004FCFD7E2E
:1003530080D0E0FBD0E0FAD0E0F8D0E0CFC618CEF2
:10036300C618CDC618CCC6F9221216337004181855
:100373001822121642700D74FFF61819F61819F6A2
:100383001819F622E7548066F61216F1700F12164A
:10039300E870F014F608F608F608F680D11216E8AD
:1003A300700CF608F608768008E6447F80EC121499
:1003B300C7700C12149F60BFE65480F6E480BB1232
:1003C300149F700519191980A5E869700C763F18F8
:1003D300768018F618F6E8F922E6CDC0E018ECC0EE
:1003E300E0E633CD33CDD313F6E719FCE719193320
:1003F300CC33C3947F400ECD9D502408E65480F641
:10040300E418F6800FF4043D14501408E6447FF614
:10041300187680E418F618F6D0E0FCD0E0FD22CC84
:10042300D313CCFD18E4C6CBC0E018E4C6CAC0E0C1
:100433000808ED08C633E613F618E433C675F0036F
:10044300C3CA97CA09CB97CB199C40047D08802E59
:10045300BD000302051516B6FF050606081618C3E8
:10046300CA33CACB33CB33CA27CA09CB37CB193CE0
:10047300C37D08803E187D0820E75CC633C6CA33B7
:10048300CACB33CB33DDF1D5F0EB30E77BCA97CA68
:1004930009CB974ACB199C406F4B7025E620E0218E
:1004A3008066187D08C3CA97CA09CB97CB199CD31A
:1004B300C633C6CA33CACB33CB3350C9DDE7D5F015
:1004C300E1D3E4C636C608C636C608C636C608C66D
:1004D30036C61818188031C3CA97CA09CB97CB19E7
:1004E3009CB34097C633C6CA33CACB33CB33DD3450
:1004F300D5F02EC6A2E0C640C8CA27CA09CB371911
:100503004A70BECB3CB480B90808E63308E63360D2
:100513001F181818D0E0FAD0E0FBD0E0FCD0E0FDC3
:1005230022187D08CA27CA09CB37CB193CD3808050
:1005330013F618E4B67F11F618B6FF0EF618C604C4
:1005430070D20808768080CAF618F618F680C5C0FF
:1005530082C0831206AF600814601214601C802BE3
:10056300EA6005EB42808023E85280801EEA600542
:10057300EB42908016E852908011EBC39420500B0D
:10058300EA6005EB42A08003E852A002061DC08288
:10059300C0831206AF600814602C146050807BE89F
:1005A30052F374016A601274026A601574046A700B
:1005B30003EB428FEB42FD806153F7DFE8528F80FC
:1005C300F343F72080F6E852F474016A6012740270
:1005D3006A601574046A7003EB42F6EB42FE803ADC
:1005E30053F7BFE852F680F343F74080F6EBC3942A
:1005F300205027E852F574016A601274026A60158C
:1006030074046A7003EB42F7EB42FF800D53F77FEC
:10061300E852F780F343F78080F6D083D08222C07C
:1006230082C0831206AF600814602B14604E806C86
:10063300E852F352FD74016A600F74026A600F742A
:10064300046A7058EB428F805353F7DF800343F7FC
:1006530020E8528F8046E852F452FE74016A600F1C
:1006630074026A600F74046A7032EB42F6802D5391
:10067300F7BF800343F740E852F68020EBC3942092
:10068300501AE844E0F852F552FF74016A6010749E
:10069300026A601374046A7003EB42F702061D5387
:1006A300F77FE852F780F543F78080F6E95407FCBB
:1006B30074B72CF582E4341DF583E0FBF4F8E9C448
:1006C300540F540322C082C0831206AF6008146023
:1006D300151460228034EA6005EB42808003E852FF
:1006E30080EB42FD8024EA6005EB42908003E852F0
:1006F30090EB42FE8014EBC39420500EEA6005EBAE
:1007030042A08003E852A0EB42FF02061D0012162E
:1007130033604F1216426012E7548066F612149C3F
:1007230070111216E8703B090909F4F618F618F669
:1007330018F6221214C470151216F108080860EA9C
:10074300E6447FF618768018E4F618F6221216F1BE
:1007530060161216E87012E4F608F608F608E65476
:1007630080F609090918181822EAC0E0EBC0E0EC8A
:10077300C0E0EDC0E0E687F0A4FBACF008E687F04C
:10078300A42CFCE435F0FA1809E687F0A42C4B609E
:10079300027401CA35F0FCE433FB09E687F0D2F7B3
:1007A300A42CCB35F0FC1908E687F0A42BCC35F04C
:1007B300FBE433FD0819E687F0D2E7A42C4ACB35D6
:1007C300F0CD3400FC09E687F0D2E7A42DCC35F058
:1007D300FDE433FA0918E687F0D2F7A42CCD35F0FF
:1007E300CA3400FC08E687F0D2E7D2F7A42ACC3556
:1007F300F07A7E20E70B0ACB33CBCD33CDCC33CC91
:1008030033CB3350147004ED30E00ED2F1E4CD3D20
:10081300CDCC3CCC3B5005DA05C2F1EB547FC6335B
:1008230008E63392F0FBE73309E733C39A502D2BE5
:1008330070190C0D4C4D70151806E608C333700D76
:1008430020F10AA2F013F6E418800B4024E4F630FA
:10085300F002768018F618F618F68024D33B14506D
:100863001074FFA2F013F6187680E418F618F680D9
:100873000FA2F013F618E63303F618ECF618EDF6AC
:10088300D0E0FDD0E0FCD0E0FBD0E0FA22C0E07481
:10089300F1120DA1A2AFE433F509D2AF85A708AFDA
:1008A300A1EF5508FE74105E60061218C575A1EF1E
:1008B30074085E60081218CB75A1F78024EFA2E0DC
:1008C30092F0E508A2E082F05017906198E0F8906A
:1008D30004C2E0C398A2D265D0335002E8F075A1F8
:1008E300FEE509A2E092AF7F02020E00C0E074F2BF
:1008F300120DA1A2AFE433FED2AF9061A4E0F8756C
:100903009B00E59158540860087591F712191380FC
:1009130023E59158541060087591EF12191980144A
:10092300E591A2E092F0E8A2E082F05007E0C2E095
:10093300F0121A759061A3E0F8E5E9585404600ECB
:10094300121A4B75E9FB906193E0A2E640F2EEA226
:10095300E092AF7F01020E00C0E074F2120DA1A27B
:10096300AFE433FED2AF9061A5E0F8E5BF5854047D
:10097300600675BFFB121A8D80D4C0E0C0D0E8C0FA
:10098300E0E9C0E0C082C083A8C1E8C0E090042FC2
:10099300E0F874AE28F582E43403F583D0E0F090F8
:1009A300042EE0F8A3E0687006E595900431F0901A
:1009B300042FE004F0C394804002E4F0A374C6F073
:1009C300D083D082D0E0F9D0E0F8D0D0D0E032C0EC
:1009D300E0C0D0E8C0E0E9C0E0C082C0839004B2C8
:1009E300E0F8A3E0687008539AFBA374018022C265
:1009F300E99004B2E0F8740128F0743228F582E437
:100A03003404F583E0F5C19004B2E0C3948040025E
:100A1300E4F080AC120A6230F039120AA780341273
:100A23000A6220F01430E72B74FFFCFBFA747F801A
:100A330022E4FCFBFA7480801AB48008BC00F2BB89
:100A430000EF800F50EBF9E4C39AFAE49BFBE49CBC
:100A5300FCE499C6CC18C6CB18C6CA18C6F922E45A
:100A6300C9C608CAC608CBC6D3330308CCC633925B
:100A7300F0C3947F402E94184019C9B90704CACB18
:100A8300CC225025C309CA33CACB33CBCC33CC33A6
:100A9300D9F422F4600DC9CCC313CB13CBCA13CA48
:100AA300D9F6CC22E4FCFBFA2214FCFBFA22C3E4C1
:100AB30098F8E499F9120AF28026C3E49AFAE49BBF
:100AC300FBE920E7E9120AF2E498F8E499F922C372
:100AD300E498F8E499F9120AF2E498F8E499F9C36E
:100AE300E49AFAE49BFB22EB20E7CFE920E7E0B9A5
:100AF3000010BB0008E88AF084F8AAF022E4FBC8DF
:100B0300FA22EB70227B10C833C8C933C9335007AC
:100B1300C39AC3DBF280069A50012ADBEAC833F496
:100B2300C8C933F4C9FA2275F008E4C833C8C93315
:100B3300C933C99AC99B5004C92AC93BD5F0ECFBF8
:100B4300C833F4C8E4C9FA22C0E074F2120DA1A2BA
:100B5300AFE433FED2AF90065EE05589600FE589BE
:100B6300FA7900121D3390065EE0F45289C2C5EE95
:100B7300A2E092AF7F01020E00C0E074F2120DA159
:100B8300A2AFE433FED2AF90065FE0558A600FE573
:100B93008AFA7901121D3390065FE0F4528AC2EBA0
:100BA30080CDC0E074F2120DA1A2AFE433FED2AF48
:100BB300900660E0558B600FE58BFA7902121D33C6
:100BC300900660E0F4528BC2E880A4080808EAC0EB
:100BD300E0EBC0E086F0E7A4FA180986F0E7A42A60
:100BE300FA180986F0E7A42AFA180986F0E7A42A76
:100BF300FA1986F0E7A4FBE5F02AFA190886F0E76C
:100C0300A42BFBE5F03AFA190886F0E7A42BFBE5E1
:100C1300F03AFA18180986F0E7A4C5F02BFBE43A7A
:100C2300FA1908E7C5F0C6A426F6E5F03BFBE43A5B
:100C3300FA1886F0E7A4F6E5F00826F6E43B08F692
:100C4300E43A08F6D0E0FBD0E0FA22080808E630E0
:100C5300E711121500120C66080808C64480C6186E
:100C6300181822181818E9799EC608CAC608CBC6F0
:100C730008CCC6C370207996CACBCC7019798ECBB9
:100C8300CC70137986CC700EF9802ACA33CACB3361
:100C9300CBCC33CC331930E7F2CCCBCA33501470FE
:100CA30004EA30E00DE4CA3ACACB3BCBCC3CCC508F
:100CB3000209C3E913C6CC182313C6CB18C6CA1836
:100CC300C6F922E4CFC0E0E4CEC0E0E4CDC0E0E466
:100CD300CCC0E075F020E626F608E633F608E633E6
:100CE300F608E633F6181818EC33FCED33FDEE3353
:100CF300FEEF33FFC3EC9709ED9709EE9709EF97E2
:100D0300191919400FFFEC97FC09ED97FD09EE97B0
:100D1300FE191906D5F0BFECF709EDF709EEF7094F
:100D2300EFF7191919D0E0FCD0E0FDD0E0FED0E0D8
:100D3300FF222518C582C0E0E51934FFC583C0E052
:100D4300E518C3958224F810AF08858319858218A6
:100D53008008858319858218D2AFCEF0A3E520F0F1
:100D6300A37808E608F0A3DEFAEFF0A3E58124FAFE
:100D7300F8E608F0A3E608F0A3E608F0A30808E6FF
:100D830008F0A3E608F0A315811581D0E0FED0E0BA
:100D9300F8158115811581E8C0E0EEC0E022C0D0CE
:100DA3002518C582C0E0E51934FFC583C0E0E51806
:100DB300C3958224F310AF088583198582188008B0
:100DC300858319858218D2AFC8F0A3E9F0A3EAF0AE
:100DD300A3EBF0A37908E709F0A3D8FAECF0A3EDAD
:100DE300F0A3EEF0A3EFF0A3D0E0F0A3D0E0F0A3E4
:100DF300D0E0F0A3E520F0A3E5F0F0A3228519836A
:100E0300851882E0C0E0A3E0F9A3E0FAA3E0FBA326
:100E13007808E0F608A3DFFAE0FCA3E0FDA3E0FE18
:100E2300A3E0FFA3E0C0E0A3E0C0E0A3E0F5D0A30C
:100E3300E0F520A3E0A3F5F010AF088583198582C0
:100E4300188008858319858218D2AFD082D083D0C9
:100E5300E0F8D0E032121503181818120CC6121558
:100E6300D2191919221215D2191919080808E618E6
:100E7300181820E7E0120CC61215031818182209D7
:100E83000909E719191920E7DC080808E6181818F2
:100E930020E703020CC6121503181818120CC61209
:100EA30015031818181215D2191919221216D3B9C5
:100EB3000003020EEEE4900331785B791B8002F0AD
:100EC300A3D8FCD9FA7A8B7B1D90008678CD790163
:100ED3008015E493A3AD82AE838A828B83F0A3AAA9
:100EE30082AB838D828E83D8E9D9E7758297758328
:100EF300A2740712132B75821775833674001213AD
:100F03002B75F0108E1A8F1B85821F85831E851803
:100F130082851983E0CEA3E0CF851F82851E83EBF4
:100F2300C9EAC8EDCBECCAC3E833C8E933C9EA332D
:100F3300CAEB33CBC3EA9EF51DEB9FF51CB35004FC
:100F4300AB1CAA1DEC33CCED33CDD5F0DAAE1AAF22
:100F53001B22121633601C12164260171216F17010
:100F6300071216E87001D322C0D01216E87006D01B
:100F7300D0B322C32233D0D0501430E0F6C3E79667
:100F83000809E7960809E7960809E796B32220E0DF
:100F9300D5E6970809E6970809E6970809E697B39F
:100FA30022121633601B12164260161216F17007D6
:100FB3001216E8600CB322C0D01216E87005D0D028
:100FC30022C32233D0D0501330E0EBC3E796080995
:100FD300E7960809E7960809E7962220E0E4E697F2
:100FE3000809E6970809E6970809E69722D083D00F
:100FF30082ECC0E0EDC0E0E493A3FCE493A3FDED39
:101003004C600D1210C8EC24FFFCED34FFFD80EFA3
:10101300E493A3FCE493A3FDED4C600D1211CEEC1D
:1010230024FFFCED34FFFD80EFD0E0FDD0E0FCE4D5
:1010330093A3C0E0E493C0E022851983851882E07E
:10104300A3FEE0A3F5207808E0A3F608DFFAE0A307
:10105300FFE0A3C0E0E0A3C0E0E0A3C0E0E0A3C0E2
:10106300E0E0A3C0E010AF088582188583198008EB
:10107300858218858319D2AFD083D082021331D0F1
:1010830083D082E9C0E0E493A3C386F0C5F095F072
:10109300F908E493A386F0C5F095F0700BE493A3ED
:1010A300C3994005E9048002A3E475F002A42582F4
:1010B300F582E5F03583F583D0E0F9E493A3C0E04E
:1010C300E493C0E022C0E0C3E493960874019396CE
:1010D30018400FE493667008087401936618700053
:1010E3007019A3A3C3E49396087401939618A3A35A
:1010F300400DD0E0D0E0D0E002102CA3A3A3A3A323
:10110300A3D0E022C0E074F2120DA1C2D9901DD386
:1011130012113A4005E0F9121FD97F01020E00C0F7
:10112300E074F2120DA1C2DC901DD512113A4005F4
:10113300E0F9121FD980E3E0C39400A2D265D03353
:10114300227404800474028000CCC0E0EDC0E0E5AA
:1011530018C39CCCAD1950011D10AF068C188D1906
:1011630080068C188D19D2AF12128DD0E0FDD0E01D
:10117300FC2274028000CCC0E0EDC0E0E518C39C03
:10118300CCAD1950011D10AF068C188D1980068C3B
:10119300188D19D2AF121249D0E0FDD0E0FC221213
:1011A3001633602512164260201216F170030216E0
:1011B300E8080808E76670101819E766700A181936
:1011C300E76670041819E76622F422C0E0C0F088CD
:1011D300F0E4936670080874019366187000A8F031
:1011E300A3A3700BD0F0D0E0D0E0D0E002102CA38A
:1011F300A3D0F0D0E022D083D082CCC0E0E493A38C
:10120300600612130C1470FAE493A36006121431EF
:101213001470FAD0E0FCE493A3C0E0E493C0E022AE
:10122300C008C3E096F50808A3E096420808A3E0C7
:1012330096420808A3E0964208A2D265D033E50897
:101243007001D3D00822CAC0E0E493A3C582CCC501
:1012530082C583CDC583F0A3C582CCC582C583CDAA
:10126300C583DAE5D0E0CA22A2E792D65002F4049D
:1012730030F70663F0FF05F0B3400384800384F482
:101283000430D60563F0FF05F022CAC0E0E0A3C531
:1012930082CCC582C583CDC583F0A3C582CCC5826C
:1012A300C583CDC583DAE6D0E0CA22C0E0C0D0C092
:1012B30082C08375AF0090069DE02401F0A3E03463
:1012C30000F0D083D082D0D0D0E032700908080873
:1012D300226016181818C6C333C608C633C608C614
:1012E30033C608C633C6D5E0EA22C008C3E096F584
:1012F3000808A3E096420808A3E096420808A3E082
:101303009645087001D3D00822C0E0E493A3D39C90
:101313005010E493A3C39C400AD0E0D0E0D0E00295
:101323001216A3A3A3D0E022C09FF59FE473D09F1E
:1013330022D083D082C09FE493C0E0740193C0E0C5
:10134300740293F59F222518F58210AF08F5184013
:101353000C15198008F51840021519D2AF851983A9
:101363002200C0D0251810AF08F518500C051980BD
:1013730008F51850020519D2AFD0D0227404800AA0
:1013830074038006740280027401C0E0F404121333
:1013930049D0E012167E226017080808C6A2E71398
:1013A300C618C613C618C613C618C613C6D5E0E9B1
:1013B30022BB0102E722C082C08389828A83BB00E9
:1013C30003E08002E493D083D08222C0E0C0D0E85F
:1013D300C0E0A8A8D2AFC2C7E8A2E792AFD0E0F8B6
:1013E300D0D0D0E0326016080808C6C313C618C6AA
:1013F30013C618C613C618C613C6D5E0EA22C3E03F
:10140300C696F608A3E0C696F608A3E0C696F608C5
:10141300A3E0C696F6222518F8E43519F922251813
:10142300FAE43519FB222518FCE43519FD22C0E046
:10143300E493A36C7009D0E0D0E0D0E0021216A3CD
:10144300A3D0E022251810AF08F518400C15198019
:1014530008F51840021519D2AF22C3E09608A3E09D
:101463009608A3E09608A3E096A2D265D03322E7BC
:101473006670100809E766700A0809E766700408D1
:1014830009E76622E066701008A3E066700A08A305
:10149300E066700408A3E06622181818E6084608F8
:1014A3007009E626087005E633F4220822C3E493A4
:1014B300960874019396087402939608740393969E
:1014C30022191919E70947097009E727097005E780
:1014D30033F4220922C3E096F008A3E096F008A3B0
:1014E300E096F008A3E096F022C3E697F60809E633
:1014F30097F60809E697F60809E697F622181818EA
:10150300E4C396F608E496F608E496F608E496F63D
:1015130022E026F608A3E036F608A3E036F608A391
:10152300E036F622E627F60809E637F60809E63735
:10153300F60809E637F622E493F608740193F608F1
:10154300740293F608740393F622E657F60809E645
:1015530057F60809E657F60809E657F622E056F06B
:1015630008A3E056F008A3E056F008A3E056F022E3
:10157300E647F60809E647F60809E647F60809E6E6
:1015830047F622700422600D18C6C333C608C6335B
:10159300C6D5E0F41822E667F60809E667F60809F7
:1015A300E667F60809E667F622E026F008A3E036C8
:1015B300F008A3E036F008A3E036F022E056F60880
:1015C300A3E056F608A3E056F608A3E056F622E495
:1015D300C397F709E497F709E497F709E497F72224
:1015E300600D08C6A2E713C618C613C6D5E0F322DA
:1015F300C6F4C608C6F4C608C6F4C608C6F4C622AE
:10160300C3E09608A3E09608A3E09608A3E0962219
:10161300C3E7960809E7960809E7960809E79622BB
:1016230075D00075813F75183175190300020EAF2F
:10163300E6084608C3134608336002E633F422E79C
:10164300094709C3134709336002E733F422600CE7
:1016530008C6C313C618C613C6D5E0F422E6F008BD
:10166300A3E6F008A3E6F008A3E6F022E0F608A359
:10167300E0F608A3E0F608A3E0F622CAC0E0E6F02D
:10168300A308DAFAD0E0FA22E0FCA3E0FDA3E0FE2F
:10169300A3E0FF22EAF0A3EBF0A3ECF0A3EDF0222A
:1016A300E0FAA3E0FBA3E0FCA3E0FD22E8F0A3E95A
:1016B300F0A3EAF0A3EBF022ECF0A3EDF0A3EEF03D
:1016C300A3EFF022E0F8A3E0F9A3E0FAA3E0FB2202
:1016D300E5C754F84401F5C77901222518F582E4DA
:1016E3003519F58322E72719471947194722E626B3
:1016F30018461846184622C2AF75D69F020000222C
:101703001213347FD70512133435D805121334342A
:10171300D90512133467DA0512133420FE041213A9
:101723003493FE0412133419FF041213343FB30726
:1017330012133450B307121334EEB307121334F9F0
:10174300B307121334F47F00121334E3FF041213AC
:1017530034D7B607121334E7B607121334FFB607AC
:1017630012133467B70712133456AF07121334D961
:10177300AF071213343FB00712133478A0071213C4
:1017830034B3A0071213340EA10712133466A10752
:10179300121334ECA10712133444A2071213348A30
:1017A300FC0612133498FC0612133411FD061213AF
:1017B30034E5FD06121334B7FF06121334ADB9072F
:1017C300121334B69907121334009A07121334967E
:1017D3009A071213341C9B071213344D9B071213E1
:1017E30034659B07121334D99B07121334EF9B07FD
:1017F300121334029C071213340C9C07121334D6B1
:1018030092061213344E9306121334EE93061213F8
:1018130034AA9406121334BE950612133492960614
:10182300121334C2970612133449990612133475EE
:101833009906121334F09906121334FD9A06121303
:1018430034789B0612133415A406121334E3A50649
:101853001213341FA706121334E4A806121334DB41
:10186300FA0212133407FB0212133478FD02121327
:1018730034B8FD02121334F8FD021213340CFE02C5
:1018830012133425FE0212133416FF02121334BB53
:10189300FF02121334CFFF021213342AA9071213C3
:1018A300344EA90712133467A90712133499A907F1
:1018B300121334C9A907121334F6A90712133458A3
:1018C300AA0712133467AA0712133471AA07121353
:1018D300347EAA0712133420970712133440970754
:1018E3001213347F97071213349A9707121334B9DC
:1018F30097071213341F98071213342898071213EB
:1019030034859807121334A998071213346A990778
:101913001213347799071213348899071213347109
:10192300B70712133489B707121334B5B707121365
:1019330034BCDA0612133410DC061213341EDC0630
:1019430012133431DC0612133446DC061213345BF3
:10195300DC061213346EDC06121334E2DC061213B7
:101963003447DD06121334E9DD06121334ADDE0607
:10197300121334BDDE06121334CCDE061213343ECA
:10198300B60712133462B6071213348AB60712135A
:1019930034B2B60712133411B407121334559E0729
:1019A3001213347C9E071213349A9E071213340DBC
:1019B3009F07121334638E071213347C8E0712139E
:1019C30034888E071213349C8E07121334BA8E0791
:1019D300121334C48E07121334CE8E07121334E15C
:1019E3008E071213346B8F07121334E08F07121311
:1019F30034149007121334629007121334AF900714
:101A0300121334CA9007121334D49007121334FA02
:101A130090071213345F9107121334DFB4071213C4
:101A23003401B507121334E5FF01121334008006A5
:101A33001213342A80061213344780061213345AC1
:101A43008006121334708006121334CE80061213EC
:101A530034068106121334FE8406121334438606B9
:101A6300121334768606121334D986061213345CA5
:101A730088061213348488061213349988061213C5
:101A830034A98806121334ED8806121334488906E4
:101A93001213345889061213341FAD071213343945
:101AA300AD0712133461AD071213347AAD07121365
:101AB300349EAD07121334BCAD07121334D3AD07F4
:101AC30012133401AE071213341CAE07121334B0D1
:101AD3007F001213349E8707121334AE8707121345
:101AE30034B58807121334E988071213340B8907B6
:101AF3001213342E89071213344C890712133486B8
:101B03008907121334EB89071213342D8A07121332
:101B1300346C8A071213349D8A07121334D48A074C
:101B2300121334F69B06121334F29C061213340F6D
:101B33009D06121334319D06121334F69E061213BA
:101B430034179F06121334CC9F0612133493A00646
:101B5300121334A2A106121334D4A2061213347042
:101B6300F006121334C5F0061213343FF1061213B4
:101B73003452F10612133479F1061213340CF206BF
:101B8300121334E6F206121334888906121334B39F
:101B930089061213346A8A06121334A88A061213AA
:101BA300342E8B06121334C88E06121334DB9006C0
:101BB3001213342ED80212133461D8021213349C38
:101BC300D802121334B7D802121334D4D802121322
:101BD30034A9D902121334A2DB0212133449DC02F2
:101BE3001213342DE30212133417E5021213348B4C
:101BF300E50212133426E602121334EEE70212133F
:101C030034B0E802121334E7E80212133420E90275
:101C130012133437E90212133471E90212133474C4
:101C2300E902121334C9E9021213341FEA02121330
:101C330034E1EA02121334A3EB0212133436EE0238
:101C4300121334A1EF02121334D4EF021213342F00
:101C5300F0021213347CF002121334D0F002121388
:101C63003469F10212133416F3021213344BF302E4
:101C730012133433F5021213346BF502121334CCFE
:101C8300F6021213344CF802121334A7F80212139B
:101C9300348CF902121334BEF9021213344EB20714
:101CA30012133453B2071213346DB207121334AA4A
:101CB300B207121334CEB207121334E8B207121369
:101CC3003401B30712133425B3071213345AEC0645
:101CD300121334AEEC061213347EED06121334AB3A
:101CE300ED06121334D8ED0612133402EE06121366
:101CF3003426EE0612133466EE06121334F2EE06A1
:101D030012133423EF061213344CEF0612133479F3
:101D1300EF0612133497EF06121334BBEF061213B8
:101D230034DBEF0612133411F006121334D0D0064D
:101D33001213344FAE07121334C0AE0712133422FA
:101D4300AF071213347DFA051213347DFB0512130A
:101D5300348EFC05121334C6FD051213341FFE0521
:101D63001213345DFE051213346BFE05121334CACD
:101D7300FF0512133487F80612133442FB061213BD
:101D830034AAFB061213346A91071213346F9207B5
:101D93001213343393071213344D9307121334FA87
:101DA3009307121334239407121334C7A70712138C
:101DB30034E7A707121334FAA807121334FDA80750
:101DC300121334D9AB071213340FAC07121334298F
:101DD300AC071213346BAC071213347BAC0712132A
:101DE3003415AD071213349EB206121334A8B2068B
:101DF300121334E2B2061213344BB30612133468CF
:101E0300B3061213340AB40612133413B4061213AE
:101E13003458B40612133481B4061213348EB40644
:101E2300121334FFB4061213348AB506121334D8CE
:101E3300B50612133416B6061213347BB606121304
:101E4300349EB60612133415B7061213346CB70654
:101E5300121334A7B706121334DCB706121334EE89
:101E6300B70612133400B8061213341FB806121340
:101E73003428B806121334E3B8061213342FB90604
:101E83001213346DB90612133488AA07121334C817
:101E9300AB071213341F9C07121334559C071213FC
:101EA300349D9C07121334F69D07121334F6B707BB
:101EB3001213347795051213349B9605121334D5F8
:101EC30096051213347F9805121334A9980512133B
:101ED300341E9B051213345E9B05121334F49C05C8
:101EE300121334919D05121334E39D0512133486A6
:101EF3009E05121334BE9E05121334009F05121360
:101F0300346FA005121334BDA105121334EEA305DB
:101F13001213341CA40512133443A4051213344CB6
:101F2300A4051213349CA4051213342EA505121311
:101F3300345DA805121334E0A805121334DFFF0340
:101F4300121334F5FF0312133483F4061213349976
:101F5300F4061213343DF5061213347CF5061213FE
:101F63003499F506121334CAF50612133417F6061C
:101F73001213344AF60612133485F6061213347A12
:101F8300F806121334C4BF06121334EFC10612133A
:101F93003422C3061213343AC306121334B3D506DC
:101FA300121334EED6061213347ED8061213349A63
:101FB3007800121334567900121334C37A001213C3
:101FC30034FF7B001213349C7C001213347AA40771
:101FD300121334EBA407121334D6F101121334A9EC
:101FE300F201121334F3F2011213342FF30112131B
:101FF3003429F5011213345BF50112133479F60118
:10200300121334A5F601121334AFF701121334F28D
:10201300F70112133472F801121334CCF9011213BD
:102023003421FA0112133481FA0112133443CB061B
:102033001213346ACB06121334A1CD06121334B42F
:10204300CD0612133409CE061213344FCF061213E2
:1020530034D0CF0612133458B007121334B7B00775
:10206300121334F5B00712133436B107121334FACE
:10207300B60512133463B705121334AEB705121342
:1020830034E9B70512133454BA0512133474BE0578
:102093001213348DC0051213349BC1051213346A15
:1020A300C20512133499B906121334CCB9061213AC
:1020B30034EFBA0612133495BC06121334AEBC06C1
:1020C30012133451BD06121334A9BD06121334E0A2
:1020D300BE0612133491B507121334DBB50712137E
:1020E3003458B107121334A4B107121334E3FF02B7
:1020F3001213340080041213340C80041213346E50
:1021030080041213347880041213340B81041213E5
:1021130034478104121334078204121334148204E3
:10212300121334678204121334B482041213345624
:1021330083041213348C830412133409840412139A
:1021430034A985041213347D87041213344A880496
:10215300121334CB8904121334308B04121334C595
:102163008B04121334F88C04121334EC8D04121301
:1021730034258F04121334BB9304121334A894042C
:102183001213344095041213346595041213348AE0
:10219300950412133422960412133438960412133E
:1021A300345A9604121334C09604121334DF96047F
:1021B300121334089704121334289804121334FEAC
:1021C3009804121334739A04121334949A04121356
:1021D30034159B04121334BB9B04121334039C0465
:1021E300121334749C04121334009D0412133464C8
:1021F3009D04121334C49D04121334739E041213EA
:1022030034DF9E04121334129F04121334909F047C
:10221300121334ECA0041213345CA104121334EE31
:10222300A10412133451A304121334D8A3041213B8
:10223300343DA4041213346BA604121334F7A70419
:1022430012133407A8041213343BA804121334A93D
:10225300A804121334E4A80412133446A904121375
:1022630034DBA904121334B6AB0412133472AD0475
:102273001213347CAE0412133479B20412133446AD
:10228300B3041213345EB40412133408B6041213E5
:1022930034FC83071213346C84071213347A8407D3
:1022A3001213348885071213342DA905121334E44D
:1022B300A905121334EBAA0512133469AB051213E3
:1022C30034ABAC05121334CCAC0512133477AD0523
:1022D30012133422AE0512133402B2051213341E44
:1022E300B40512133485B50512133427B907121335
:1022F300341CB80412133477B80412133401B9042C
:1023030012133472BA041213344ABB041213343353
:10231300BC041213344ABC041213349CBC041213BD
:102323003400BD0412133441BD0412133454BD04EC
:10233300121334AABD0412133403BE041213341B44
:10234300BE04121334CBC00412133460C10412133D
:10235300348AC104121334D3C104121334C3C30423
:102363001213342DC40412133401C504121334445C
:10237300C5041213345EC504121334A5C504121325
:1023830034C5C5041213346FC6041213346DC70465
:10239300121334C7C70412133418C8041213342396
:1023A300C904121334C7CB04121334FDCB04121324
:1023B300346FCC0412133494CC041213340ECD04B2
:1023C300121334D7CD0412133414CE0412133476FB
:1023D300CE0412133437CF041213343ACF0412133A
:1023E3003444CF041213344ECF0412133461CF0498
:1023F300121334DDCF0412133406D004121334192C
:10240300D00412133445D0041213346CD0041213C5
:102413003490D004121334CBD0041213343DD104BE
:1024230012133465D104121334A6D104121334DB0E
:10243300D104121334FBD10412133438D20412130F
:10244300346FD20412133479D304121334ACD4048A
:10245300121334C2D404121334CFB807121334E75F
:10246300B80712133405DF0612133443DF061213C1
:1024730034CFDF06121334DAE006121334F6E20621
:102483001213349EAB06121334EDAB061213348DC4
:10249300AD0612133448AF061213348AAF06121373
:1024A3003473B0061213347DB1061213349FB10690
:1024B300121334E9B1061213346AB206121334BD8F
:1024C300D603121334E0D603121334D3D7031213F3
:1024D300341CD80312133474D803121334D0D80322
:1024E3001213341CD90312133492D9031213341E5A
:1024F300DA0312133493DA03121334D6DA03121302
:1025030034A7DE03121334F6E00312133430E1036D
:10251300121334B4E103121334E5E4031213345AEF
:10252300E503121334EAE603121334F2E70312133A
:102533003408E9031213347EE90312133445EA0322
:10254300121334AEEA03121334B1EA0312133485BF
:10255300EB03121334C1EC0312133481EE03121391
:10256300347CF00312133487F10312133423F20380
:102573001213346EF30312133474F403121334BAC4
:10258300F90312133474F503121334008005121384
:1025930034A080051213340A8105121334B1810566
:1025A300121334108205121334BC820512133465DE
:1025B30085051213348B86051213340F8705121306
:1025C30034EC8805121334918905121334348A05C7
:1025D300121334938A051213344C8B05121334CB24
:1025E3008C05121334888E051213340990051213C7
:1025F300346391051213347392051213341993053E
:10260300121334389405121334F4D4041213346CB3
:10261300D504121334B4D5041213342BD605121374
:102623003441D6041213348BD604121334C0D604A7
:102633001213343ED70412133498D704121334F10F
:10264300D80412133470D90412133487DA04121322
:1026530034A9DA04121334B5DB04121334C6DB04D1
:10266300121334DEDB04121334FEDC041213341BA6
:10267300DD04121334EEDD0412133412DE041213DC
:102683003429DE041213344ADE041213346CDE04DC
:102693001213345EDF04121334B6DF041213342C26
:1026A300E1041213348AE104121334A9E10412136E
:1026B30034DBE20412133458E304121334C5E30485
:1026C30012133405E40412133467E40412133417A9
:1026D300E504121334E9E604121334D4E7041213A5
:1026E30034CEE804121334D4E904121334F0EA04A8
:1026F300121334FEEA04121334D7EB0412133477A3
:10270300EC04121334BBEC04121334D0EC04121394
:1027130034E1ED0412133484EE04121334DCEE04BA
:102723001213342C8B07121334D48C0712133491E5
:102733008D07121334E68D0712133400800712132A
:10274300341E800712133462800712133488800703
:10275300121334AE8007121334C68007121334DE0B
:102763008007121334F680071213345981071213AA
:10277300349B8107121334BD8207121334C68207B8
:10278300121334CF8207121334D88207121334E2A0
:10279300820712133403830712133400E80612135B
:1027A30034E0EB06121334EEEB06121334F3EB06AC
:1027B30012133407A3071213346EB807121334E548
:1027C300B9071213343BA607121334D5FF051213AE
:1027D30034008002121334578002121334C3800270
:1027E3001213344F81021213340582021213344D33
:1027F3008202121334668202121334898202121384
:1028030034AB8202121334E9820212133438830286
:10281300121334638302121334C183021213346814
:1028230084021213341085021213348C850212139E
:1028330034598602121334A08602121334EC860232
:10284300121334748702121334AD87021213340344
:1028530088021213341F88021213344E8802121393
:10286300345A8A02121334888B02121334B48B0243
:10287300121334E88B02121334098C021213341826
:102883008C02121334238C02121334D28C021213CF
:1028930034428D02121334CD8D02121334D58D02BE
:1028A300121334428E021213347E8E0212133444F6
:1028B3008F021213341790021213346C9002121306
:1028C300340B9102121334659102121334AA91024C
:1028D3001213344394021213348695021213347084
:1028E3009802121334549902121334389A021213B1
:1028F30034499A02121334BB9A02121334529B02C4
:10290300121334B79B02121334A79C02121334CC54
:102913009C02121334EA9C02121334069D02121312
:1029230034799D02121334889D02121334109E02CF
:102933001213340D9F021213341A9F0212133423FD
:102943009F0212133405A10212133427A202121399
:102953003437A20212133465A302121334E4A30220
:10296300121334FFA4021213343BA50212133415BD
:10297300A702121334D2AA02121334E6AA021213C4
:1029830034F0AA02121334FAAA0212133404AB026B
:102993001213341DAB0212133427AB0212133494F7
:1029A300AB021213349FAB02121334C7AB021213E0
:1029B30034D2AB0212133437AC0212133442AC02DA
:1029C30012133466AC021213348AAC02121334FCB1
:1029D300AC0212133445AD0212133461AD0212136B
:1029E30034D2AD021213341EAE0212133467AE0298
:1029F300121334A5AE0212133426AF02121334CDD0
:102A0300AF021213349CB10212133401B202121337
:102A1300342FB30212133455B3021213349DB4028C
:102A2300121334D7B702121334D5B902121334A0D8
:102A3300BB0212133439BC021213343ABE0212130E
:102A430034EFBE0212133428BF021213348EBF02B6
:102A530012133498BF02121334C1C102121334008B
:102A6300C30212133457C30212133402C4021213E3
:102A730034B2C502121334FFC6021213341FC70245
:102A830012133474C70212133475C8021213349D1F
:102A9300C802121334FCC802121334F4C90212130D
:102AA300346BCA021213347ECB02121334ECCB0202
:102AB300121334EBCC0212133445CF021213346ECB
:102AC300CF02121334D4D00212133456D20212138B
:102AD30034ADD2021213345BD30212133400D40286
:102AE30012133459D40212133417D502121334A912
:102AF300D50212133408D6021213344AD602121323
:102B0300347BD602121334D2D7021213340080035B
:102B13001213343280031213346B800312133429DB
:102B23008203121334FF82031213345E83031213DE
:102B330034748403121334C084031213344E870392
:102B4300121334288A031213346F8B0312133407BE
:102B53008C03121334138C031213345C8C0312137F
:102B6300349E8D03121334948E03121334BE8E03DA
:102B7300121334148F031213346D8F03121334E0C2
:102B83008F03121334169203121334989303121300
:102B930034839403121334CD95031213340598032D
:102BA300121334029B03121334119B03121334A523
:102BB3009B03121334509C03121334939C0312137C
:102BC30034DC9C031213342C9D03121334909D03A5
:102BD300121334029E031213341E9E031213344D38
:102BE3009E031213348C9E03121334879F03121314
:102BF3003436A003121334B3A203121334E5A30330
:102C0300121334BDA4031213343FA50312133474F7
:102C1300A903121334A3A903121334FEA903121335
:102C23003431AA03121334A9AA03121334DCAA03FE
:102C33001213343DAB031213348DAB031213345A06
:102C4300AC0312133413AD03121334D7AD031213B1
:102C53003451B003121334B3B10312133404B30366
:102C630012133428B4031213342BB4031213345A3B
:102C7300B40312133452B60312133411B7031213ED
:102C83003440B7031213345EB80312133426B90366
:102C9300121334E4BA0312133416BB031213345859
:102CA300BB0312133457BC03121334CABC031213ED
:102CB30034F3BE0312133452BF03121334A6BF03FB
:102CC300121334D5C103121334B8C203121334746C
:102CD300C30312133488C3031213349CC3031213A4
:102CE30034C9C303121334F9C303121334B4C50331
:102CF300121334C6C6031213341BC70312133464EE
:102D0300C7031213348BC70312133453C8031213AC
:102D130034F9C8031213347FCA03121334C6CA0327
:102D230012133438CB031213348DCC0312133436FD
:102D3300CD031213346ACD0312133482CD0312135D
:102D43003425CE03121334A1D00312133449D20312
:102D530012133467D20312133485D203121334517E
:102D6300D3031213349FD603121334528401121364
:102D7300348A84011213348A8901121334D08901ED
:102D8300121334068B011213346B8B01121334E0CC
:102D93008C01121334EA8F011213341391011213AD
:102DA30034269B01121334B69B01121334A09E01E7
:102DB300121334AD9F0112133410A00112133458AF
:102DC300A101121334C6A30112133458A50112131F
:102DD30034E5A50112133404A70112133491A7019A
:102DE3001213349BA701121334C3A70112133463C4
:102DF300A8011213344EA9011213341BAA01121392
:102E03003438AA0112133461AA011213348EAA01B1
:102E1300121334D5AC01121334A4AD01121334E3ED
:102E2300AD0112133465AE0112133406AF01121350
:102E33003438AF011213347FAF01121334B2AF0130
:102E4300121334F6AF0112133445B0011213344A8E
:102E5300B001121334A6B001121334EAB0011213F5
:102E630034C4B10112133429B2011213348FB201E5
:102E73001213340AB30112133472B60112133475E8
:102E8300B701121334F3B80112133409BC0112133E
:102E930034ABBC01121334F4BE01121334AFBF01BF
:102EA300121334EEBF01121334C6C101121334E3FB
:102EB300C101121334ECC101121334F5C101121311
:102EC3003400C2011213341FC201121334C3C301ED
:102ED30012133420C4011213342AC40112133434DC
:102EE300C40112133493C401121334DDC401121349
:102EF30034DEC50112133435C60112133446C7013B
:102F03001213348FC70112133449C80112133460EA
:102F1300C90112133435CA011213347CCB011213C5
:102F23003480CC0112133479CD0112133491CD01C5
:102F3300121334C8CD01121334D2CD01121334DC71
:102F4300CD01121334E7CD0112133405CE01121350
:102F5300344DCE01121334ABCE01121334D2CE0151
:102F6300121334E4CE0112133499CF01121334D265
:102F7300CF01121334F4D00112133447D1011213C9
:102F8300342DD20112133454D201121334C4D2019A
:102F930012133440D3011213349CD401121334C3DB
:102FA300D50112133485D60112133453D7011213EA
:102FB3003411D801121334F9D801121334A3D901EF
:102FC3001213340BDA01121334C0DA011213341C56
:102FD300DB0112133474DB011213343ADC011213D4
:102FE300345DDC0112133418DD011213343ADD01B0
:102FF3001213349BDD01121334CBDF01121334C4DB
:10300300E00112133470E10112133491E30112133E
:1030130034DAE30112133425E40112133481E40199
:10302300121334DFE40112133403E50112133427BE
:10303300E5011213345CE50112133484E501121324
:1030430034C9E5011213341DE60112133476E60187
:1030530012133470E7011213340EE90112133453BF
:10306300E9011213347CE90112133405EA01121346
:103073003478EA0112133486EA01121334AAEA01FE
:1030830012133400EB011213341BEB01121334D669
:10309300EB0112133402EC0112133445EC01121349
:1030A30034A8EC01121334B6EE01121334E2EE012C
:1030B3001213349DEF0112133481F00112133415EE
:1030C300F10112133418E60512133450E6051213F6
:1030D3003471E605121334B3E60512133417E7050A
:1030E30012133421E70512133431E7051213346840
:1030F300E70512133411EB05121334D9EC0512133F
:1031030034BDEE051213345FEF05121334E9EF05F6
:10311300121334E13E001213348A3F001213346950
:1031230040001213347541001213349541001213F9
:1031330034B74200121334674400121334D44400EA
:10314300121334A54500121334AB46001213342373
:1031530047001213345E4700121334B747001213AB
:1031630034F247001213343B4800121334CF4800A3
:103173001213346549001213343A4A001213340D02
:103183004B001213349B4B00121334C14B00121328
:1031930034EE4B001213341F4C00121334EC4C006A
:1031A300121334FC4C001213344F4D001213345CD1
:1031B3004D00121334694D00121334724D00121373
:1031C30034D64D00121334344E001213347F4E00A4
:1031D3001213349A4E00121334C14E00121334DE0C
:1031E3004E00121334EA4E001213347B50001213B4
:1031F300349450001213341051001213342351002D
:10320300121334335100121334D7510012133443C1
:103213005300121334565400121334F6540012138D
:10322300340055001213347F5500121334905500A7
:10323300121334CF5500121334FD5500121334CA40
:1032430056001213342157001213345A5700121325
:1032530034B05700121334CE57001213341C5800E5
:10326300121334E758001213343559001213348201
:103273005900121334055A001213342F5A00121333
:1032830034655A00121334745A00121334D35A009B
:103293001213344B5B001213348C5B00121334DCB7
:1032A3005B00121334075C00121334215C00121309
:1032B300343B5C00121334105D001213341A5D00AA
:1032C300121334555D00121334655D00121334B6C6
:1032D3005D00121334CA5D00121334EC5E00121346
:1032E30034015F00121334945F001213340860003A
:1032F300121334AD6000121334B860001213341B80
:103303006200121334376200121334836200121303
:1033130034F162001213342363001213343D63004B
:103323001213349D63001213343C64001213348768
:103333006400121334DA6600121334726700121336
:1033430034E96700121334466A001213345E6A00CC
:10335300121334616A001213346D6A00121334813C
:103363006A00121334896A00121334C06A001213FC
:1033730034B46B001213343E6C00121334C06C006F
:10338300121334406D00121334176E0012133439C4
:103393006E00121334D26E001213342F6F00121307
:1033A30034326F00121334A16F00121334ED700026
:1033B3001213340072001213348B72001213349EF2
:1033C30073001213346574001213349674001213CD
:1033D30034BC7400121334C57400121334F4740033
:1033E300121334A47500121334547600121334C725
:1033F30076001213346A7700121334DD7700121348
:10340300341C78001213346578001213349DF803CA
:1034130012133452F803121334BCF7031213342D6E
:10342300F60312133462FC04121334E7FA04121382
:1034330034E5F904121334A6F70412133450F704D5
:1034430012133493F5041213340AF304121334845D
:10345300F20412133449D30512133475D20512132F
:103463003440F104121334FCEF0412133475D10504
:1034730012133496D00512133475EF041213341A51
:103483009507121334F99407121334B694071213E1
:1034930034529407121334BDCF05121334E3CE050F
:1034A30012133419CE0512133488CC051213345178
:1034B300CC0512133423CC05121334D7CB051213C6
:1034C3003440CB05121334B0CA051213348ACA052B
:1034D3001213343FCA0512133409CA051213348C6C
:1034E300C90512133427C905121334D6C80512139C
:1034F30034FEC7051213346EC70512133422C705F1
:103503001213349DC60512133458C6051213343CE6
:10351300C605121334D8CA06121334E4C4051213B1
:103523003439CA0612133477C6061213349CC506FF
:1035330012133486B9071213346BB907121334818B
:10354300FE0312133423FD03121334BAFC031213C4
:1035530034B6C40512133483C40512133407C405E7
:10356300121334D2E50612133451FC03121334C37D
:10357300E406121334FDE30612133484E306121334
:1035830034CDE50512133431FB0312133474E5050E
:10359300121334F8D5041213343FE5051213340A19
:1035A300E505121334D6E40512133469E405121346
:1035B3003451E4051213342CE40512133405E105E8
:1035C300121334D8DE05121334DFDC051213346B07
:1035D300DC051213341CDC05121334D6DB0512137D
:1035E3003478DB05121334BBF60512133473FA0374
:1035F30012133437F6051213344CF505121334D471
:10360300F30512133484F10512133498F0051213E1
:1036130034D7F40300000080FBE4730000000020B3
:10362300014E840000010020014E840000020020AE
:10363300014F840000030020015084000004004275
:10364300016D800000050042017E800000060042FB
:1036530001A080000007002001AB80000000404271
:1036630001A0800000100042018F800000110020A3
:10367300012D07000012001003B61D060000001004
:1036830011000008000000203300000C0055003931
:103693003300000C001C00423300001200550020D0
:1036A30001000014000E0042220000050B0000215F
:1036B300010000050B010021010000050B0001239F
:1036C300010000050B010123010000050B0201238A
:1036D300010000050B030123010000050B04012178
:1036E300010000050B050121010000050B06012166
:1036F300010000050B070121010000050B08012152
:10370300010000050B090121010000050B0A01213D
:10371300010000050B0B0121010000050B0C012129
:10372300010000050B0D0121010000050B0E012115
:10373300010000050B0F0121010000050B10012101
:10374300010000050B110121010000050B120121ED
:10375300010000050B130121010000050B140121D9
:10376300010000050B150121010000050B160121C5
:10377300010000050B170121010000050B180121B1
:10378300010000050B190121010000050B1A01219D
:10379300010000050B1B0121010000050B1C01208A
:1037A300010000050B1D01280100008F00010057D7
:1037B3001B87000100251E35000400E91D250002BA
:1037C30000ED1D26000200EF1D27000200F11D2859
:1037D300000100FB1D29000100FC1D84000400FD05
:1037E3001D86000100011E2A000100021E2B00019C
:1037F30000031E2C000100071E2D0008003F1B2E96
:10380300000100081E2F000100091E300001000AFC
:103813001E310001000B1E32000100471B33000163
:1038230000481B340001000C1E36000100491B3800
:103833000001000D1E39000100061E830002002353
:103843001E63000100541B64000100041E65000197
:1038530000051E6D000100551B71000800371B6633
:10386300000100221E43000100131E440002001445
:103873001E45000100161E46000200171E470008E1
:10388300004C1B48000100191E4B0001001A1E04C6
:10389300000100261EA1000100291E370001002897
:1038A3001E88000100271E3C0001004A1B3D000149
:1038B300000E1E490002001B1E67000100561B4D2F
:1038C3000002001D1E4E0001001F1E4F00020020BB
:1038D3001E3E000100121E510001000F1E52000186
:1038E30000101E53000100111E540001004B1B0069
:1038F3000000000000000136360101000102010052
:10390300010301000104010606050200000701008E
:10391300340801000F090401010D0100FF0E080026
:103923000017020000190100FF1A0100011B01002A
:10393300FE1C0100081D0200001F01000120010000
:1039430001210200002301000F24020000260100D0
:103953000127010008280200FF2A0100072B0102AA
:10396300402C0100002D0100012E0100012F010058
:10397300FF30010B1D310800003A0100083B010034
:103983000F3C0100013D0100FF3E04000042040022
:1039930000460400004A0400004E040000520400E4
:1039A30000560400005A0400000000210100010039
:1039B30021020000012366000101236700020123A5
:1039C300680003012369000401216A000501216BDA
:1039D300000601212C010701212D010801212E01DF
:1039E3000901212F010A012130010B012131010CB1
:1039F3000121C8000D0121C9000E0121CA000F01D8
:103A030021CB00100121CC00110121CD0012012195
:103A1300CE0013012132011401213301150121CFFD
:103A2300001601213401170121D000180121D10012
:103A3300190121D2001A0121D300010371030103EB
:103A43000103010301030103220302030103100322
:103A53000003000300030003000300030003420309
:103A630000032403060300030003040312032503D6
:103A730023032503230304030403000300030003B8
:103A830044030003000323030003650321003503FC
:103A93008103000305030003000300030003250360
:103AA3002303030471040204600411047004020478
:103AB30002040104020410046104000414046304F6
:103AC3007304720462044304000413040604000430
:103AD300000404041204000400040004000451045C
:103AE300640000040004000444040004000400040F
:103AF3000004650400043504810464000504000423
:103B030083040004030071003001600011007000A1
:103B130031022003500480001000610000001400F3
:103B2300630073007200620043000000130006008C
:103B3300000000000400120000000000000000006C
:103B430004000400370037003C024400000000007A
:103B53000000000065000000350081000000050042
:103B630000008300000003027102300160021102B1
:103B730070020102020202028002100261023A0094
:103B830041006302730272026202430200021302E3
:103B930038000002000204021202000200020002C6
:103BA300000204020402370037003C024402000210
:103BB30039000002000265020002350281020002A0
:103BC3000502820283020002010171010101010168
:103BD30011010101310101010101800110016101A4
:103BE3003B00140063017301720162014301000190
:103BF300130106013D01350004011201000100011A
:103C03000001000104010401330133013C014401BB
:103C13003201360000010001650100013500810118
:103C23000001050182018301000136000100060045
:103C330000000F0000000000000000000000000072
:103C430003FFFF00000403FFFF0000FFFF0FF40169
:103C53000005C4040320000100000B000000000065
:103C630000000003010F000000000000000000003E
:103C73000000000000000000000000000000000041
:103C83000000000000000000072261220D22112124
:103C9300132267221322732219221121132267226E
:103CA3001F221121252211212B2211213122112121
:103CB300372211213D221121432279224922112148
:103CC3000000000000000000000000004F228B22D3
:103CD300552211214F228B22552211214322792271
:103CE3005B2211210000A925130055251F005B2528
:103CF3001F8061250100A9250200DD240300E324C0
:103D03000400E9240500EF240600FB2430001925F4
:103D1300310013253200252533002B2535003125AD
:103D23003400372536003D251100492514004F2561
:103D330015000D25FFFF00000A000000020000002F
:103D43000400000008000000100000002000000034
:103D5300400000008000000000010000000200009D
:103D63000004000000080000001000000020000014
:103D73000040000001A72D06D12D08CB2D0BE92D06
:103D830010BF2A02AD2D05BF2D07B32D0C8F2D0DAE
:103D93009B2D64BB28FF000007ECFDFDFDECDCDC84
:103DA300CCBCACAC9C9C8C7C7C6C6C5C5C5C4C4CF0
:103DB3003C3C2C2C1C1C00000004060000040600E4
:103DC3000104060002040600420408000004001671
:103DD3000F00000B150B020002220F3300000E5AD6
:103DE3006967426565416C6C69616E636530390171
:103DF300030507090B0D0F00020406080A0C0D1436
:103E03000AE5D5C5B5A5A5958585756500034A4918
:103E1300434E181A250502303017181921301B1D7F
:103E23001F30303016181920231A1C1E3000393D5C
:103E33003F373C3C362C442D000119161816161832
:103E43002303000C0E020B040B0A0708000F0204E5
:103E530002010101010902E803000000BE040A9BFC
:103E63003D00000000023E0E00FA067F00E803FF5B
:103E73001E1E00050C08040400102809080903018C
:103E83000C0508031532060300FF0A0C1004E004B6
:103E9300124711A2E792AF22E4F0A3F0A3F022A30A
:103EA300123E9BA3F0227F0C02103CE0F508E4F5E0
:103EB30009F50AF50B227401F09004DAE0640F228D
:103EC30074091213647F0402103CA3A3E024F5C316
:103ED3009413229004FA126A017A147B0022C0829E
:103EE300C083901C737473F0A37431F0A37485F0D2
:103EF300A37431F0901C77745BF0A37431F0A37456
:103F030055F0A37431F0A37491F0A37431F0A3744A
:103F130097F0A37431F0A3748BF0A37431F0A374FE
:103F230043F0A37431F0901C837467F0A37431F0F1
:103F3300A3746DF0A37431F0A37461F0A37431F032
:103F4300A3749DF0A37431F0901C94125F8E6006ED
:103F53001261F8121EA7901C911256BA7408F0A3AE
:103F6300E4F0A3F0901D34F0901C96F07C0BFDF967
:103F73007A977B1C121DF97C0B7D0079007AA27B5A
:103F83001C121DF90256C374F7120D3574F712147F
:103F930047EAFEEBFF1254E174051240577403F035
:103FA300EE2402FAE43F124031242DFCE43FFD8C61
:103FB300828D8312416F12404060081248B974FF2A
:103FC300F0A3F0EE242BE43F1C1CFD8C828D83A315
:103FD300E0C0E08A828B831254F2D0E01240408822
:103FE300828983125CEA24031267CB122069740866
:103FF3001216DE7403F09004EF12114874021214C7
:10400300297903EEFAEFFB12332F7402121364E9DA
:10401300F5087007EEFAEFFB123215A908740902CE
:1040230048C9F582E43FF583127436125CDFFB8ADC
:10403300828B8312404FE8F0A3E9F0EE22126A1F4D
:1040430012404FE8F0A3E9126F9BE02212413A8A33
:10405300828B8322F0A3E4F012405F22EE240DF55D
:1040630082E43FF5832274F1120D35EAFEEBFF8CF7
:10407300088D09890A1241448A828B8312413A745A
:104083000F1216DE12415DE824FF18E934FFF988A8
:10409300828983E50A12414F9004F412414C900443
:1040A300F312414C74111216DE12415DEE2404FC2E
:1040B300E43FFD880B8A828B83E0F50C8C828D8331
:1040C300E0250CC3950B126A1BE8F0A3E912544ECA
:1040D300A3A3A3A3A3A3A3A3E0640370081257AAF3
:1040E300F0A3E4800312445012405A7409F0750C93
:1040F30097750D1C750E00780C121383124444122D
:104103001DED7403121364750CFF750DFF780C120B
:104113001387AC08AD097903EEFAEFFB12332F7462
:1041230002121364E9F5087007EEFAEFFB12321579
:10413300A9087F0702103CE024FFF8A3E034FFF94D
:1041430022EE2402FAE43FFB2212416F1241532272
:10415300F0E824FF18E934FFF922E0F50CA312413B
:104163006F12415388828983E50CF022E0888289AB
:104173008322C082C083901CB3E0C39408400474BC
:10418300078001E08A828B83F033333354F8F902DA
:1041930056C374F0120D35EAFEEBFF890C8C0E8DBD
:1041A3000F750A00A2AFE433F50BC2AF901CAD80CC
:1041B3003F12427D503712428E64037030EE24F971
:1041C300FEEF34FFFF850882850983A3A3E024055E
:1041D300FCA3E03400FDEEFAEFFB122069EE24FFAE
:1041E3001EEF34FFFF7410250AF50A150C12541B39
:1041F300127432E50C6006E508450970B4E50BA2BC
:10420300E092AFA2AFE433F50BC2AF901CAD802CAC
:104213002402FAE43509FB8A828B83126A0A240694
:10422300F582E438F58312429B8A828B83124283A0
:10423300A3A312429B050A150C12541B125430609F
:104243002212428E640270F112427DE50840C112CF
:10425300457EA2E550E3850E82850F837401F0E568
:104263000C70D6E50BA2E092AF8E828F83E50AF045
:10427300EE24FFFAEF34FFFB8035124589A2E622D4
:1042830012428722126DFFA3A3A322850882850908
:1042930083126DF912643322E08E828F83F0EE2451
:1042A300FF1EEF34FFFF221233FB74041213647FEB
:1042B3000802103C74EC120D3574F512144789137F
:1042C3008A128B0F851882851983E4F00412142156
:1042D300123125E9F89004D9E0292434F508FA7B52
:1042E30000121E0B8A0A8B0BAE0AAF0BEE4F700344
:1042F300024438EE2402F50AE43FF50BA808EE2841
:10430300F8E43FF9850A82850B831240392404F5CA
:1043130010E43FF511851082F583E4F09004D9E0B1
:10432300FCF8C3E498F895E0F9850A82850B83E0ED
:1043330028F508A3E039F5099004D71266C3750E72
:1043430000780C1213837D00AA08AB09121DED74CB
:1043530003121364AC18AD1974011216DEE0F9E50B
:104363000824FFFAE50934FFFB12312B8A828B8381
:10437300E4F0EA24FFF508EB34FFF509E50FC45434
:10438300F0F9901D35E0C4333354C0F89004D3E002
:10439300A2E0E43313134849440F124458E512C40E
:1043A30054F04513850882850983F0A808850A829D
:1043B300850B83E0FA851082851183E02AC398F088
:1043C300850A82850B83E8F0A3E509F012445012B5
:1043D300405AE4F0740A1216DEE4F07508A2750977
:1043E3001CF50A7808121383124444121DED74035A
:1043F300121364851882851983E06009EE240E1276
:1044030055774408F0123317E9F9E4F508F509780C
:10441300081213877404121429EEFAEFFB12332FD8
:104423007402121364E97006EEFAEFFB800BEEFAE6
:10443300EFFB121E117A007B00740B121364023E11
:10444300A97C0B7D00EE2418FAE43FFB221254E50D
:10445300E4F0A322E085088285098312446222F0F6
:104463001266972274F3120D358A0A8B0BA2AFE4FE
:1044730033F50CC2AF750800750900901CAD802C94
:104483001246A55024850A82850B83A3A312785F65
:104493008E828F83A3A31261FB12331DE9600A127C
:1044A30044CBC2E6F08E088F0912469A1249537024
:1044B300CFE50845096006124585D2E6F0E50CA272
:1044C300E092AF7F0502103C1244CF221266B0E0A7
:1044D3002274F0120D35EAFEEBFF8C0C8D0D750E78
:1044E30000A2AFE433F50FC2AF7508007509009061
:1044F3001CAD8020850A08850B09124585D2E4F09E
:10450300E50812457ED2E7F0E50A24FBF582E50BC8
:1045130034FFF583E0F50AA3E0F50BE50A450B60EC
:1045230043E50A125306350BF583E0A2E750D9851C
:104533000A82850B83A3A3121148AC0CAD0DEEFACE
:10454300EFFB1233237402121364E960BBE50845E1
:104553000960A1E508240D12459164017006124516
:104563009AD2E4F0E50FA2E092AFE50845096006B0
:1045730012320F750E01A90E0242B21253301245C8
:10458300942212458922E508241112459122F582CD
:10459300E43509F583E022850882850983126DF9E4
:1045A300E02274F2120D3574FE121447750C007577
:1045B3000D00851882851983E4F0A3F0A2AF33F5CB
:1045C3000AC2AF901CADE0FEA3E0FF8035EE24FBF2
:1045D300F582EF34FF127430780C121387EEFCEF80
:1045E300FD7AAD7B1C121E417402121364EEFCEFC4
:1045F300FDAA18AB19121E2FAE08AF09901CB3E029
:1046030014F0EE4F60271246A5501DEE240BF8E47C
:104613003FF988828983E024FFF0A3E034FFF08828
:10462300828983125F8E60A51246968099E50AA25D
:10463300E092AF901CB3E060319004DAE0640F6065
:1046430006901D34E070237A8B7B1C123407908410
:10465300351211447A8B7B1C1233FB7404121364DE
:10466300800874F01258E1123203AA18AB19121E13
:10467300358A0A8B0BAE0AAF0BEE4F60131231373C
:104683001244CBA2E28E828F83A350D674E980D4E6
:1046930002495B8E0C8F0DEE24FBF582EF34FFF5A0
:1046A30083221244CFA2E72274F7120D35EAFEEB00
:1046B300FF1231371254EF12361CE964019004F6ED
:1046C300700AE02401F8A3E034008004E0F8A3E0DA
:1046D300F9125B3D125EE6901CB3E070219004DAA0
:1046E300E0640F70197A8B7B1C12340790843512A7
:1046F30011447A8B7B1C1233FB7404121364A9A834
:10470300C2AF901CB3E004124711A2E7800DF0E999
:10471300A2E7E433F8E922E508A2E092AF02597D6B
:1047230074F7120D35EAFEEBFF124758F0123137DA
:10473300EEFCEFFD7AAD7B1C121E3BA9A8C2AF9025
:104743001CB3123E919004DAE0640F7005790812ED
:1047530032CF02597D1244CFC2E42274F7120D35D1
:1047630074EA121447EAFEEBFF9004D3E06040853D
:1047730018828519837401F01216DEE41248301290
:1047830016DEAA82AB831220698E828F831245A024
:10479300C0E0740A1216DED0E0126A30740B1216EF
:1047A300DEAA82AB83123347AA18AB1912279B7474
:1047B300160248C974F7120D35EAFEEBFF123119E0
:1047C300E9F974DC69601E74DD69601974E4696079
:1047D3001474F369600F74DE69600A74DF6960053D
:1047E30074DB697007EEFAEFFB1232D502597D7460
:1047F300F7120D3574EB121447EAFEEBFF851882AE
:1048030085198374061248301216DEAA82AB83120E
:104813002069126A35740A1216DEAA82AB83123338
:1048230047AA18AB1912279B74150248C9F0EE2446
:1048330013FCE43FFD74022274F7120D3574F71272
:104843001447EAFEEBFFEE242D12557760651251F3
:1048530008AA18AB1912206974081216DE7403F043
:104863009004EF1211481248B9121148900502E062
:10487300F97404121429EEFAEFFB12311F740412B7
:104883001364E9F974DC69602374DD69601E74E400
:1048930069601974F369601474DE69600F74DF6909
:1048A300600A74E869600574DB697007EEFAEFFB70
:1048B3001232D5024020EE1248BE22242BF582E4A8
:1048C3003FF58322740312136402597D74F2120DAF
:1048D300358A088B09750C00750D00750AE7A2AFC0
:1048E300E433F50BC2AF901CAD8003124696124918
:1048F3005360351246A550F3125574640170ECEE03
:10490300242FF582E43F124B02E06870DE780C122C
:104913001387EEFCEFFD7AAD7B1C121E417402126D
:104923001364901CB3E014F0E50BA2E092AFEE4FDA
:104933006013EEFAEFFB12313779F0EEFAEFFB1268
:1049430032D5750A00A90AAA08AB091232D5800D1F
:10495300E0FEA3E0FFEE4F2274021213647F06020F
:10496300103C74F4120D3574F7121447EAFEEBFF92
:104973008E828F83A3E064F37003024A0F8E828FCB
:1049830083A3E064DF7003024A0F8E828F83A3E068
:1049930064E860788E828F83A3E064DB606E1231FB
:1049A30079E9F508705EEE240E1255776056124AC7
:1049B300191231C1EA4B604C74081216DE124A23F5
:1049C3001211487508FF7509FF78081213878E8244
:1049D3008F83A3A3A3A3A3A3A3A3E0F97404121433
:1049E3002912311F7404121364E9F50874F365087E
:1049F300601274DF6508600C74E86508600674DB98
:104A03006508700F8E828F83A3E508F0EEFAEFFB43
:104A1300123185023EC3EE240FFAE43FFB790922EB
:104A230074021271F874FFF0A3124A3022124A344E
:104A330022125CF3A3A32274F5120D358A088B09A5
:104A43007E008A828B83A3A3A3A3A3A3123ECD409C
:104A5300027EE88A828B83A3A3A3A3A3A3A3A3A316
:104A6300A3E0C3941040047EE880138A828B83A35F
:104A7300A3A3A3A3A3A3A3A3A3E0640F600A901D0E
:104A830011E0540870027EE8EA240BF582E435094C
:104A9300124B02A3A3A3A3A3A3A3A3E0C398500C05
:104AA300EA240B124591640F60027EE89004F3E060
:104AB300F47003A3E0F470027EEC7A237B00121EF1
:104AC300A1901C9412620B901C94125F8E60298536
:104AD3000882850983A3A3A982AA8389088A097501
:104AE3000A0078081213837C237D001261F8121DDB
:104AF300ED740312136480027E1AEEF9027399F5C2
:104B030083E0F88A828B83A3A32274F5120D35EA1E
:104B1300FEEBFF8E828F83A3A3A3A3A3A3A3A3E090
:104B23009004DA1270DB9004F51270C19004D51270
:104B330070E0901D35F0F91219C7901D35E060182B
:104B4300EE2404FAE43FFB79501219AFEE2406FA7F
:104B5300E43FFB79E11219AF901D34123EB96004B2
:104B6300740180027400901C961270C71213837C28
:104B73000B7D007A977B1C121DED7403121364EEF8
:104B83002418F508E43FF50978081213837C0B7D9C
:104B9300007AA27B1C02739174F7120D35EAFEEBC7
:104BA300FF8E828F83A3E070061261F812317F8E2D
:104BB300828F83742C1258E11232E102597D74F70B
:104BC300120D35EAFEEBFF901C94125F8E600D12FE
:104BD30061F8901C94E4F0A3F0121EA78E828F83D9
:104BE30074081258E112279B02597D74F6120D3591
:104BF300901D34E06013901C96E0700D124C0F1260
:104C03003131EA4B6003123215026D3B9004D5E05B
:104C1300FB9004F5E0FA9004DAE0F92274F4120D43
:104C23003574E7121447EAFEEBFF750B018E828F92
:104C330083A3A3A3A3A3A3A3E0A2E25068EE242B20
:104C4300F582E43F12785D124CDD12313DE9705577
:104C53009082A3E064017005750B008048124CE557
:104C63001213837C0B7D007411121421121DED7439
:104C730003121364123317E9FA740E121419880815
:104C830089097808121387750830750900780812A6
:104C930013871248B91211481269D17901123335B9
:104CA30074061213648518828519837410124830B0
:104CB3001216DEAA82AB8312205D1248B91269FD77
:104CC300740B1216DE125EE6740D1216DEE50B127D
:104CD300575412279B7419023EC5EE2413FAE43F7E
:104CE300FB22EE24081270CF22C082C083901D35B0
:104CF300E060031233890256C3C082C083901D2C27
:104D03007473F0A3741CF0A37477F0A3741CF0A362
:104D13007483F0A3741CF0901E4D74A5F0A3743A31
:104D2300F0901D167413F0A37431F0901CB87449FD
:104D3300F0A37431F0901CBA744FF0A37431F09067
:104D43001D11E044028001E4F00256C3C082C08317
:104D5300EAFCEBFD7903025D5FC082C083EAFCEBF2
:104D6300FD7905025D5FC082C0837908026ECCC005
:104D730082C08374FE121447901CC074FDF0A374A8
:104D830031F0901CC274F7F0A37431F0800D7AAD4A
:104D93007B1C121E3512574A123305901CAD125F4D
:104DA3008E70EB901CAF125F8E600F7AAF7B1C127C
:104DB3001E3512574A12330580E9901CADE4F0A367
:104DC300F0901CB3123E9C7402800274111213649F
:104DD3000256C374F6120D35E9FF743029F582E4E7
:104DE300343EF583E493FEFA7B00121E0BEA4B601C
:104DF30011EA2E125EDC8A828B83A3A3A3A3E4F0C1
:104E0300802C7A027B00121E0BEA4B601D741A2F52
:104E1300F582E4343EF583E4938A828B83F0A374B2
:104E23001AF0901D0CE0F9121E177A007B00026D38
:104E33003BE9FC740629F8EAA2E0501EE875F00A83
:104E430084E5F0F96014740A28C399F8E9C394055A
:104E53004004740A28F8740B28F8ECC39413400434
:104E63007A1480027A06EA2879002409F8500109A5
:104E73007A0A7B00120AEAE8F9021331C082C0837E
:104E8300901D11E05402600A1227A1E96004790120
:104E9300800279000256C3C082C083901D11E05482
:104EA300026016901CB3E0700C125F8B600BE0C8BD
:104EB30012542850047901800279000256C3C0823B
:104EC300C0839082A0E0F8901CB5E0C3985005120F
:104ED3001E0B80047A007B000256C3C082C083127B
:104EE300330579000256C374F7120D3574FE12149C
:104EF30047851882851983EAF0A3EB125059A3A3BF
:104F0300A3A3A3E0600A14606024FE6069024FDA81
:104F13009004DAE0640F60181232DBE9701285182E
:104F2300828519831261FB901CBC1254F212361C49
:104F3300900502E0C0E0851882851983125CBDD01C
:104F4300E012505974141271F412785F7AAF7B1C1B
:104F5300121E2FA8A8C2AF901CB5E00412621179EB
:104F6300201232CF74020248C98518828519831230
:104F73006E01741580D085188285198312503CA365
:104F8300A3E06053851882851983E02402F8A3E027
:104F93003400F988828983127632E0C0E085188272
:104FA300851983E0FCA3E0CC2406F582E43CF58379
:104FB300D0E0126A3D8882898312620B851882854C
:104FC3001983125324851882851983601312504163
:104FD30060051250494043AA18AB19123305808467
:104FE30012504160F2125049501C125438FA85187D
:104FF30082851983125043F87450125ED7343EF5FC
:1050030083E4936A6014851882851983125041647E
:105013000870C4125438640870BD12543814125006
:1050230061240AC0E08518828519831254F2D0E006
:1050330012506104024F49E0F8A3125D0A22E0F81E
:10504300A3E012506822851882851983126A0E1212
:105053005069C3940A22125073F583888222125036
:105063007312506822C82406F582E438F583E022DF
:105073001271F8E0F8A3E022C082C083901CC4122E
:105083005F8E6008126E0212361C8002790002568F
:10509300C374F7120D35EAFEEBFF12405F7401F0A3
:1050A300EE2430F582E43FF58312676B1240392416
:1050B30032125577C0E0EE2413F582E43FF583D036
:1050C300E0F0EE2433125577C0E0EE2414F582E4C9
:1050D3003FF583D0E0F0EE242CF582E43FF5831214
:1050E3001148125108EE242E125577F912332F74FA
:1050F30002121364E9F5087007EEFAEFFB1232159A
:10510300A90802597DEE2423FCE43FFD22C082C09E
:10511300831232DBE960047920800279010256C3ED
:10512300C082C083EA1253061251C7D2E0024D4B2C
:10513300C082C0831251C1640170111251CC400C62
:105143008A828B83A3E0F91232D5806FEA2410128E
:1051530051C4A2E650128A828B83A3E0F9901CBE4D
:105163001254F212361C80531251C16401700D1295
:1051730051CC50088A828B83743080368A828B8329
:10518300A3E0641B8A828B83700474228024A3E0CF
:10519300700D1251C1F87425125ED7343E800B1284
:1051A30051C1F8741A125ED7343EF583E4938A82B0
:1051B3008B83F0901D0CE0F9121E170256C3EA24EC
:1051C3000DF582E43BF583E022EA1253303BF5838D
:1051D300E0A2E32274F7120D35E9FE125F8B700330
:1051E3000252FDEE6011741B6E7013E0C81253007F
:1051F300640570030252C8126DF1E40252CC74E9E3
:105203006E706212531C700B1227A7E960051253CC
:1052130036606279EE12192B901CB6125319901C4A
:10522300B6603B125339901CB6700B12531914F02D
:10523300121AF30252FD125324C2E71254441253BA
:10524300006403700C126A0712530612506ED2E206
:10525300F079ED12192B12530C12361C8075126D56
:10526300F474E9806474E16E703E1227A7E9605517
:1052730012533670509004FCE0C0E0126A07241207
:10528300F582E438F583D0E0F09004EBE0C0E090E1
:105293001CB612503A12503AD0E0F09004EBE004FE
:1052A300F07901121ADB8052741C6E7018901CB6D0
:1052B3001261FB901CC61254F212361C901CB6E409
:1052C300F0A3F08035126DF1EEF0901CB61261FB85
:1052D300123203126A071269D9E0548060109005F4
:1052E30002E0F91219EB900501E0F91219DF901CA5
:1052F300B6E4F0A3F079101232CF02597D240D12D7
:10530300506B222411F582E422901CB61261FF90A7
:105313001CBA126DFB22E0F8A3E0C8241212506BF2
:1053230022E0F8A3E0C812533012506E222410F585
:1053330082E422901CB6126A0E1269DDE054042244
:1053430074F4120D35750A00750B00A2AFE433FF38
:10535300C2AF125F8B60030254001254EF12361C6B
:10536300E94410F8901CAD800985080A85090B12E1
:10537300541B125430700302540012458558687050
:10538300E8780A121387AC08AD097AAD7B1C121EAC
:10539300417402121364901CB6E508F0A3E50912E8
:1053A3005444125428405D901CB4E014F0EFA2E082
:1053B30092AF901CB6E0240EF8A3E03400F98808FD
:1053C30089098882F5831261FB901CB612543EF959
:1053D3001231C7E9901CB1F012544CE05480901C78
:1053E300B66026126A0A241312506BF91219EB12D3
:1053F3006A07241412506BF91219DF8018EFA2E028
:1054030092AF8011901CB380A1125324A2E1B3E4A4
:1054130033F9121ADB023EC8E50824FBF582E509DD
:1054230034FFF58322241112506BA2E72212743643
:10543300E508450922851882851983124287A3E06E
:1054430022F0901CB6126A0E22A3E4F0850882852E
:1054530009832274F7120D35EAFEEBFF1232FFEED9
:105463002410125577A2E3400C12557464017005A1
:1054730090829E800390829FE0F9EEFCEFFD7AAD6F
:105483007B1C121E47E96046EEFAEFFB901CC0122C
:1054930054F212361CEE240E12557754047020A8D1
:1054A300A8C2AF901CB4E0041261F1FAE8A2E7923B
:1054B300AF1254E1A3E05401702112320F801CEEAD
:1054C300FAEFFB901CB81254F212361C800D8E8238
:1054D3008F83A374F11258E112320302597D1254DF
:1054E300E522EE240EF582E43FF58322901CC212DE
:1054F3006DFB22C082C08312320F0256C374F712AF
:105503000D35EAFEEBFF7900901D11E05402700C9B
:10551300EE24301255775404600279E8901D11E0AF
:105523005460700CEE24301255775402600279E80F
:105533008E828F83A3A3A3A3E0F89082A4E0C398F1
:10554300500279E8EE242E125577700CEE242B12BC
:105553005577700479F5800BE970051231F1E9F99B
:10556300E96007EEFAEFFB1232D502597D34FFF5FD
:1055730009EE240DF582E43FF583E022C082C08367
:105583008A828B83740DF012279B0256C3C082C09C
:10559300838A828B83E4F0A3F0EA24301251C4544B
:1055A3000490829E7012E0F8901CB4E0C3984012FD
:1055B30079F11232D50256C3E0F8901CB3E0C398D8
:1055C30050EE901D0CE0F9121E1780E974F6120DCF
:1055D30035E9FE244CFAE43400FB121E0BEA4B605F
:1055E30012EE8A828B83A3A3A3A3F0EA244C125E58
:1055F300DC80047A007B00026D3BC082C083901C78
:10560300C8745DF0A37432F0A3748DF0A37432F008
:10561300A37463F0A37432F0A37469F0A37432F03B
:10562300A37487F0A37432F0A3747BF0A37432F0F5
:10563300A37475F0A37432F0A37493F0A37432F0DF
:10564300A37499F0A37432F0A3749FF0A37432F09F
:10565300A374ABF0A37432F0A3746FF0A37432F0AD
:10566300A37457F0A37432F0A37451F0A37432F00F
:10567300901CE47481F0A37432F0A374A5F0A374B6
:1056830032F0A374BFF0A37433F0A374B1F0A37426
:1056930032F0A374B7F0A37432F0901D08E4F090D5
:1056A3001D0BF0901CF41256BA7402F0901CFD12FC
:1056B30056BA7401024D4B74CFF0A37432F0A32297
:1056C300D083D08202133174F5120D3574F11214A4
:1056D300478518828519837402F074011216DEE976
:1056E300F060047AFF7BFF74021216DE12620B7500
:1056F300080075091D750A0078081213837C0B7D59
:105703000074071216DEAA82AB83121DED74031216
:105713001364AA18AB1912279B740F02739674F7BC
:10572300120D3574FD121447851882851983740A86
:10573300F074011216DEE9F074021216DEEA125753
:105743005412279B0248C7851882851983EAF0A360
:10575300EBF0AA18AB192274F6120D3574F7121474
:1057630047EAFEEBFF1257AA12405774021258D2AF
:10577300AA18AB1912205DEE242E124025243012F4
:1057830067D8121387740212142979831A1AEFFB4C
:1057930012332F7402121364E9F5087007EEFAEF5F
:1057A300FB123215026D341254E574012274F012A7
:1057B3000D3512727F12166F7808790C120BCE78A2
:1057C3000812137F7AF77B1C0242AA74F4120D3578
:1057D30074C61214479004DAE0640F6010851882CF
:1057E300851983742E1257541232E180277AEE7B87
:1057F3001C123407123ED6120AF288088909E4F50E
:105803000AF50B780812137F7AEE7B1C1233FB74B4
:1058130004121364743A023EC574F5120D35EAFEA0
:10582300EBFF8E828F83A3E0F860030258BBEE2464
:105833002D12557764026007E06403600278E8EE96
:105843002423F582E43FF583123ECF400478E880B9
:105853006AE87064EE2423FAE43FFB79E11219AF9E
:10586300EE242EFAE43FFB79501219AFEE242D12E9
:1058730055776402700E1269C71269FD9004E9122C
:105883005EE680129004E974FEF0A3041258D27A03
:10589300E07B04122069EE2418124CE81213837C77
:1058A3000B7D007A007B1D121DED7403121364EE51
:1058B300FAEFFB12324BE9F8E86011E88E828F832E
:1058C300A3126C2974171258E11232E1027399F092
:1058D300EE2425FCE43FFD228E828F837429F0EEB3
:1058E300FAEFFB2274F6120D3574F7121447901D6C
:1058F3000BE0703B7401F0F9121AA5AA18AB191248
:10590300331175080075091D78081213877508018E
:1059130075090078081213879004EF121148740672
:105923001214297A037905123335740612136402AB
:105933006D3674F7120D35EAFEEBFF7901121AABDF
:105943008E828F83E064207004A374EBF0901D0BB0
:10595300E0A2E25003C2E2F0E0A2E15008125B7F52
:10596300123245800C8E828F83742A1258E11232D0
:10597300E18007EEFAEFFB12337D7F0102103C74E6
:10598300F4120D3574FE121447EAFEEBFF7901128F
:105993001AAB7AEE7B1C1234077AF77B1C1234079E
:1059A300125CC9851882851983125CFDE0F50B70C2
:1059B3000FAA18AB1979531219AF1274261219AF23
:1059C300124CE51213837C0B7D007A007B1D121DA4
:1059D300ED74031213648518828519831261FBA980
:1059E3000B12323F901D0BE0A2E1500C7A008E8225
:1059F3008F83A3E0F9123245901D0BE4F074020289
:105A03003EC574F7120D35EAFEEBFF8E828F83A33A
:105A130074EBF0901D0BE0A2E150077A0079EB12D2
:105A23003245EEFAEFFB12327B02597D74F7120D09
:105A330035EAFEEBFF7901121AAB7AEE7B1C1234C6
:105A4300077AF77B1C123407901D08E4F0901D0BB6
:105A5300F07AFF7BFF8E828F83A3E0F912323F023D
:105A6300597D74F7120D35EAFEEBFF1232750259B8
:105A73007674F7120D35EAFEEBFF7901121AAB8E3D
:105A8300828F83A3A3A3A3E060047400800274EB5A
:105A9300125AC65003C2E2F0E0A2E15008125BC8FA
:105AA3001232458014A2E050108E828F83742AF044
:105AB300A374EB1258E11232E1EEFAEFFB12322734
:105AC30002597D8E828F83A3F0901D0BE0A2E22208
:105AD30074F6120D35EAFEEBFF901D0BE0D2E1F0F8
:105AE3007901121AA58E828F83A3E0703C123317BB
:105AF300E9FAEE240DF508E43FF509780812138757
:105B03007508017509007808121387125B3D12119D
